{"abi":[{"type":"constructor","inputs":[],"stateMutability":"nonpayable"},{"type":"function","name":"ADMIN_ROLE","inputs":[],"outputs":[{"name":"","type":"bytes32","internalType":"bytes32"}],"stateMutability":"view"},{"type":"function","name":"DEFAULT_ADMIN_ROLE","inputs":[],"outputs":[{"name":"","type":"bytes32","internalType":"bytes32"}],"stateMutability":"view"},{"type":"function","name":"ORACLE_ROLE","inputs":[],"outputs":[{"name":"","type":"bytes32","internalType":"bytes32"}],"stateMutability":"view"},{"type":"function","name":"UPGRADE_INTERFACE_VERSION","inputs":[],"outputs":[{"name":"","type":"string","internalType":"string"}],"stateMutability":"view"},{"type":"function","name":"checkPolicyTrigger","inputs":[{"name":"policy","type":"tuple","internalType":"struct PolicyRegistry.Policy","components":[{"name":"policyId","type":"uint256","internalType":"uint256"},{"name":"policyholder","type":"address","internalType":"address"},{"name":"flightNumber","type":"string","internalType":"string"},{"name":"airline","type":"string","internalType":"string"},{"name":"departureTime","type":"uint256","internalType":"uint256"},{"name":"departureAirport","type":"string","internalType":"string"},{"name":"arrivalAirport","type":"string","internalType":"string"},{"name":"premiumAmount","type":"uint256","internalType":"uint256"},{"name":"payoutAmount","type":"uint256","internalType":"uint256"},{"name":"delayThresholdMinutes","type":"uint256","internalType":"uint256"},{"name":"coversCancellation","type":"bool","internalType":"bool"},{"name":"status","type":"uint8","internalType":"enum PolicyRegistry.PolicyStatus"},{"name":"createdAt","type":"uint256","internalType":"uint256"},{"name":"updatedAt","type":"uint256","internalType":"uint256"}]},{"name":"status","type":"tuple","internalType":"struct FlightOracleAdapter.FlightStatus","components":[{"name":"flightNumber","type":"string","internalType":"string"},{"name":"airline","type":"string","internalType":"string"},{"name":"scheduledDeparture","type":"uint256","internalType":"uint256"},{"name":"actualDeparture","type":"uint256","internalType":"uint256"},{"name":"scheduledArrival","type":"uint256","internalType":"uint256"},{"name":"actualArrival","type":"uint256","internalType":"uint256"},{"name":"isCancelled","type":"bool","internalType":"bool"},{"name":"isDelayed","type":"bool","internalType":"bool"},{"name":"delayMinutes","type":"uint256","internalType":"uint256"},{"name":"status","type":"string","internalType":"string"},{"name":"timestamp","type":"uint256","internalType":"uint256"},{"name":"departureAirport","type":"string","internalType":"string"},{"name":"arrivalAirport","type":"string","internalType":"string"}]}],"outputs":[{"name":"","type":"bool","internalType":"bool"}],"stateMutability":"view"},{"type":"function","name":"dataValidityPeriod","inputs":[],"outputs":[{"name":"","type":"uint256","internalType":"uint256"}],"stateMutability":"view"},{"type":"function","name":"flightStatuses","inputs":[{"name":"","type":"string","internalType":"string"}],"outputs":[{"name":"flightNumber","type":"string","internalType":"string"},{"name":"airline","type":"string","internalType":"string"},{"name":"scheduledDeparture","type":"uint256","internalType":"uint256"},{"name":"actualDeparture","type":"uint256","internalType":"uint256"},{"name":"scheduledArrival","type":"uint256","internalType":"uint256"},{"name":"actualArrival","type":"uint256","internalType":"uint256"},{"name":"isCancelled","type":"bool","internalType":"bool"},{"name":"isDelayed","type":"bool","internalType":"bool"},{"name":"delayMinutes","type":"uint256","internalType":"uint256"},{"name":"status","type":"string","internalType":"string"},{"name":"timestamp","type":"uint256","internalType":"uint256"},{"name":"departureAirport","type":"string","internalType":"string"},{"name":"arrivalAirport","type":"string","internalType":"string"}],"stateMutability":"view"},{"type":"function","name":"getFlightStatus","inputs":[{"name":"flightNumber","type":"string","internalType":"string"}],"outputs":[{"name":"","type":"tuple","internalType":"struct FlightOracleAdapter.FlightStatus","components":[{"name":"flightNumber","type":"string","internalType":"string"},{"name":"airline","type":"string","internalType":"string"},{"name":"scheduledDeparture","type":"uint256","internalType":"uint256"},{"name":"actualDeparture","type":"uint256","internalType":"uint256"},{"name":"scheduledArrival","type":"uint256","internalType":"uint256"},{"name":"actualArrival","type":"uint256","internalType":"uint256"},{"name":"isCancelled","type":"bool","internalType":"bool"},{"name":"isDelayed","type":"bool","internalType":"bool"},{"name":"delayMinutes","type":"uint256","internalType":"uint256"},{"name":"status","type":"string","internalType":"string"},{"name":"timestamp","type":"uint256","internalType":"uint256"},{"name":"departureAirport","type":"string","internalType":"string"},{"name":"arrivalAirport","type":"string","internalType":"string"}]}],"stateMutability":"view"},{"type":"function","name":"getRoleAdmin","inputs":[{"name":"role","type":"bytes32","internalType":"bytes32"}],"outputs":[{"name":"","type":"bytes32","internalType":"bytes32"}],"stateMutability":"view"},{"type":"function","name":"grantRole","inputs":[{"name":"role","type":"bytes32","internalType":"bytes32"},{"name":"account","type":"address","internalType":"address"}],"outputs":[],"stateMutability":"nonpayable"},{"type":"function","name":"hasRole","inputs":[{"name":"role","type":"bytes32","internalType":"bytes32"},{"name":"account","type":"address","internalType":"address"}],"outputs":[{"name":"","type":"bool","internalType":"bool"}],"stateMutability":"view"},{"type":"function","name":"initialize","inputs":[{"name":"_policyRegistry","type":"address","internalType":"address"},{"name":"_dataValidityPeriod","type":"uint256","internalType":"uint256"},{"name":"_maxDelayThreshold","type":"uint256","internalType":"uint256"}],"outputs":[],"stateMutability":"nonpayable"},{"type":"function","name":"invalidateFlightData","inputs":[{"name":"flightNumber","type":"string","internalType":"string"}],"outputs":[],"stateMutability":"nonpayable"},{"type":"function","name":"isFlightDataValid","inputs":[{"name":"flightNumber","type":"string","internalType":"string"}],"outputs":[{"name":"","type":"bool","internalType":"bool"}],"stateMutability":"view"},{"type":"function","name":"maxDelayThreshold","inputs":[],"outputs":[{"name":"","type":"uint256","internalType":"uint256"}],"stateMutability":"view"},{"type":"function","name":"oracleData","inputs":[{"name":"","type":"string","internalType":"string"}],"outputs":[{"name":"oracle","type":"address","internalType":"address"},{"name":"timestamp","type":"uint256","internalType":"uint256"},{"name":"isValid","type":"bool","internalType":"bool"}],"stateMutability":"view"},{"type":"function","name":"pause","inputs":[],"outputs":[],"stateMutability":"nonpayable"},{"type":"function","name":"paused","inputs":[],"outputs":[{"name":"","type":"bool","internalType":"bool"}],"stateMutability":"view"},{"type":"function","name":"policyRegistry","inputs":[],"outputs":[{"name":"","type":"address","internalType":"contract PolicyRegistry"}],"stateMutability":"view"},{"type":"function","name":"proxiableUUID","inputs":[],"outputs":[{"name":"","type":"bytes32","internalType":"bytes32"}],"stateMutability":"view"},{"type":"function","name":"renounceRole","inputs":[{"name":"role","type":"bytes32","internalType":"bytes32"},{"name":"callerConfirmation","type":"address","internalType":"address"}],"outputs":[],"stateMutability":"nonpayable"},{"type":"function","name":"revokeRole","inputs":[{"name":"role","type":"bytes32","internalType":"bytes32"},{"name":"account","type":"address","internalType":"address"}],"outputs":[],"stateMutability":"nonpayable"},{"type":"function","name":"setDataValidityPeriod","inputs":[{"name":"_dataValidityPeriod","type":"uint256","internalType":"uint256"}],"outputs":[],"stateMutability":"nonpayable"},{"type":"function","name":"setMaxDelayThreshold","inputs":[{"name":"_maxDelayThreshold","type":"uint256","internalType":"uint256"}],"outputs":[],"stateMutability":"nonpayable"},{"type":"function","name":"setPolicyRegistry","inputs":[{"name":"_policyRegistry","type":"address","internalType":"address"}],"outputs":[],"stateMutability":"nonpayable"},{"type":"function","name":"supportsInterface","inputs":[{"name":"interfaceId","type":"bytes4","internalType":"bytes4"}],"outputs":[{"name":"","type":"bool","internalType":"bool"}],"stateMutability":"view"},{"type":"function","name":"unpause","inputs":[],"outputs":[],"stateMutability":"nonpayable"},{"type":"function","name":"updateFlightStatus","inputs":[{"name":"status","type":"tuple","internalType":"struct FlightOracleAdapter.FlightStatus","components":[{"name":"flightNumber","type":"string","internalType":"string"},{"name":"airline","type":"string","internalType":"string"},{"name":"scheduledDeparture","type":"uint256","internalType":"uint256"},{"name":"actualDeparture","type":"uint256","internalType":"uint256"},{"name":"scheduledArrival","type":"uint256","internalType":"uint256"},{"name":"actualArrival","type":"uint256","internalType":"uint256"},{"name":"isCancelled","type":"bool","internalType":"bool"},{"name":"isDelayed","type":"bool","internalType":"bool"},{"name":"delayMinutes","type":"uint256","internalType":"uint256"},{"name":"status","type":"string","internalType":"string"},{"name":"timestamp","type":"uint256","internalType":"uint256"},{"name":"departureAirport","type":"string","internalType":"string"},{"name":"arrivalAirport","type":"string","internalType":"string"}]}],"outputs":[],"stateMutability":"nonpayable"},{"type":"function","name":"upgradeToAndCall","inputs":[{"name":"newImplementation","type":"address","internalType":"address"},{"name":"data","type":"bytes","internalType":"bytes"}],"outputs":[],"stateMutability":"payable"},{"type":"event","name":"DataValidityPeriodUpdated","inputs":[{"name":"newPeriod","type":"uint256","indexed":false,"internalType":"uint256"}],"anonymous":false},{"type":"event","name":"FlightStatusUpdated","inputs":[{"name":"flightNumber","type":"string","indexed":true,"internalType":"string"},{"name":"isCancelled","type":"bool","indexed":false,"internalType":"bool"},{"name":"isDelayed","type":"bool","indexed":false,"internalType":"bool"},{"name":"delayMinutes","type":"uint256","indexed":false,"internalType":"uint256"},{"name":"timestamp","type":"uint256","indexed":false,"internalType":"uint256"}],"anonymous":false},{"type":"event","name":"Initialized","inputs":[{"name":"version","type":"uint64","indexed":false,"internalType":"uint64"}],"anonymous":false},{"type":"event","name":"MaxDelayThresholdUpdated","inputs":[{"name":"newThreshold","type":"uint256","indexed":false,"internalType":"uint256"}],"anonymous":false},{"type":"event","name":"Paused","inputs":[{"name":"account","type":"address","indexed":false,"internalType":"address"}],"anonymous":false},{"type":"event","name":"PolicyRegistryUpdated","inputs":[{"name":"newRegistry","type":"address","indexed":false,"internalType":"address"}],"anonymous":false},{"type":"event","name":"PolicyTriggered","inputs":[{"name":"flightNumber","type":"string","indexed":true,"internalType":"string"},{"name":"policyId","type":"uint256","indexed":true,"internalType":"uint256"},{"name":"triggered","type":"bool","indexed":false,"internalType":"bool"},{"name":"reason","type":"string","indexed":false,"internalType":"string"}],"anonymous":false},{"type":"event","name":"RoleAdminChanged","inputs":[{"name":"role","type":"bytes32","indexed":true,"internalType":"bytes32"},{"name":"previousAdminRole","type":"bytes32","indexed":true,"internalType":"bytes32"},{"name":"newAdminRole","type":"bytes32","indexed":true,"internalType":"bytes32"}],"anonymous":false},{"type":"event","name":"RoleGranted","inputs":[{"name":"role","type":"bytes32","indexed":true,"internalType":"bytes32"},{"name":"account","type":"address","indexed":true,"internalType":"address"},{"name":"sender","type":"address","indexed":true,"internalType":"address"}],"anonymous":false},{"type":"event","name":"RoleRevoked","inputs":[{"name":"role","type":"bytes32","indexed":true,"internalType":"bytes32"},{"name":"account","type":"address","indexed":true,"internalType":"address"},{"name":"sender","type":"address","indexed":true,"internalType":"address"}],"anonymous":false},{"type":"event","name":"Unpaused","inputs":[{"name":"account","type":"address","indexed":false,"internalType":"address"}],"anonymous":false},{"type":"event","name":"Upgraded","inputs":[{"name":"implementation","type":"address","indexed":true,"internalType":"address"}],"anonymous":false},{"type":"error","name":"AccessControlBadConfirmation","inputs":[]},{"type":"error","name":"AccessControlUnauthorizedAccount","inputs":[{"name":"account","type":"address","internalType":"address"},{"name":"neededRole","type":"bytes32","internalType":"bytes32"}]},{"type":"error","name":"AddressEmptyCode","inputs":[{"name":"target","type":"address","internalType":"address"}]},{"type":"error","name":"ERC1967InvalidImplementation","inputs":[{"name":"implementation","type":"address","internalType":"address"}]},{"type":"error","name":"ERC1967NonPayable","inputs":[]},{"type":"error","name":"EnforcedPause","inputs":[]},{"type":"error","name":"ExpectedPause","inputs":[]},{"type":"error","name":"FailedCall","inputs":[]},{"type":"error","name":"InvalidInitialization","inputs":[]},{"type":"error","name":"NotInitializing","inputs":[]},{"type":"error","name":"UUPSUnauthorizedCallContext","inputs":[]},{"type":"error","name":"UUPSUnsupportedProxiableUUID","inputs":[{"name":"slot","type":"bytes32","internalType":"bytes32"}]}],"bytecode":{"object":"0x60a080604052346100cc57306080527ff0c57e16840df040f15088dc2f81fe391c3923bec73e23a9662efc9c229c6a009081549060ff8260401c166100bd57506001600160401b036002600160401b031982821601610078575b6040516129a990816100d182396080518181816114de01526115970152f35b6001600160401b031990911681179091556040519081527fc7f505b2f371ae2175ee4913f4499e1f2633a7b5936321eed1cdaeb6115181d290602090a15f8080610059565b63f92ee8a960e01b8152600490fd5b5f80fdfe6080806040526004361015610012575f80fd5b5f3560e01c90816301ffc9a714611e0c5750806307e2cea514611dd257806316ee199d14611d6457806318fccc7d14611c115780631c4dd7d014611be9578063248a9ca314611bb05780632f2ff15d14611b6757806331c3c4ba146119c157806336568abe1461197a57806337f276ff146118045780633abec82e146117e75780633f4ba83a146117725780634f1ef2861461154857806352d1902d146114cc5780635c975abb1461149e578063713db2dd1461140657806375b238fc146113cc5780637a1ac61e146112615780637bee7f69146112445780637e879e9e146111ac5780638456cb591461114757806391d14854146110f2578063936acc3314611089578063a217fddf1461106f578063ad3cb1cc14611026578063c383e28214610fe2578063c843ed4314610260578063d547741f146102155763e015c85d1461015b575f80fd5b3461021157602036600319011261021157610174612093565b61017c61227d565b6001600160a01b031680156101cc576020817f2d048377d7d1867ca991e6103bd31cbdb1152d3fa05e264c0158ce2bbfdfde7a926001600160601b0360a01b6002541617600255604051908152a1005b60405162461bcd60e51b815260206004820152601760248201527f496e76616c696420706f6c6963792072656769737472790000000000000000006044820152606490fd5b5f80fd5b346102115760403660031901126102115761025e60043561023461207d565b90805f525f80516020612934833981519152602052610259600160405f2001546122d8565b6124e6565b005b34610211576020366003190112610211576004356001600160401b038111610211576102909036906004016120b6565b335f9081527f0b45fb0a7d123af421db170fce034e3ce3a70e5f1150428004face1400c458f260205260409020547f68e79a7bf1e0bc45d0a330c573bc367f9cf464fd326078812f301165fbda4ef19060ff1615610fc457506102f1612612565b80515115610f875761014081015115610f4e576101408101514210610f095760e0810151610eb5575b610334602082518160405193828580945193849201611f5d565b81015f81520301902081519182516001600160401b038111610b055761035a8354611f7e565b601f8111610e70575b506020601f8211600114610e0e57819293945f92610e03575b50508160011b915f199060031b1c19161782555b60208101519182516001600160401b038111610b05576103b36001830154611f7e565b601f8111610dbb575b506020601f8211600114610d5157819293945f92610d46575b50508160011b915f199060031b1c19161760018201555b60408201516002820155606082015160038201556080820151600482015560a082015160058201556006810161043460c08401511515829060ff801983541691151516179055565b60e0830151151561ff0082549160081b169061ff00191617905561010082015160078201556101208201519182516001600160401b038111610b055761047d6008840154611f7e565b601f8111610d02575b506020601f8211600114610c9857819293945f92610c8d575b50508160011b915f199060031b1c19161760088301555b61014081015160098301556101608101519182516001600160401b038111610b05576104e5600a830154611f7e565b601f8111610c49575b506020601f8211600114610bdf57819293945f92610bd4575b50508160011b915f199060031b1c191617600a8201555b6101808201518051906001600160401b038211610b0557610542600b840154611f7e565b601f8111610b90575b50602090601f8311600114610b2457600b92915f9183610b19575b50508160011b915f199060031b1c1916179101555b6105fe60405161058a81611e97565b33815242602082015260016040820152600260406105b76020865181845193828580945193849201611f5d565b810160018152030190209260018060a01b038151166001600160601b0360a01b855416178455602081015160018501550151151591019060ff801983541691151516179055565b80517f2c257c22fed2a5329a7f171f18262fe84d9fb0e9437c9edf48136564b1ded678608060c0840151151560e08501511515936101008601516106476101408801519261225d565b95604051938452602084015260408301526060820152a25160405160208183516106748183858801611f5d565b81015f81520301902061072f600b6040519261068f84611e5f565b61069881611fb6565b84526106a660018201611fb6565b6020850152600281015460408501526003810154606085015260048101546080850152600581015460a085015260ff6006820154818116151560c087015260081c16151560e0850152600781015461010085015261070660088201611fb6565b6101208501526009810154610140850152610723600a8201611fb6565b61016085015201611fb6565b6101808201526002546040516388fe737160e01b8152602060048201526001600160a01b03909116905f81806107686024820188612058565b0381855afa908115610a49575f91610a54575b505f5b815181101561025e5760208160051b830101519060405191632b07fce360e01b83528060048401525f83602481885afa928315610a49575f936108bc575b506101608301519260048410156108a8576001936108a157866107df8183612565565b918215610843577f1205dcdf3118d48f56543e006ce2f18a94873901a97958fe736678ed81ea7afd91610811916126bf565b61081a8a61225d565b9261083960405192839215158352604060208401526040830190612058565b0390a35b0161077e565b50507f1205dcdf3118d48f56543e006ce2f18a94873901a97958fe736678ed81ea7afd60405161087281611eb2565b601981527f4e6f207472696767657220636f6e646974696f6e73206d6574000000000000006020820152610811565b505061083d565b634e487b7160e01b5f52602160045260245ffd5b9092503d90815f823e6108cf8282611ecd565b6020818381010312610211578051906001600160401b038211610211576101c08282018483010312610211576040519261090884611e7b565b81830180518552602001516001600160a01b0381168103610211576020850152604083830101516001600160401b0381116102115761094e90828401908585010161263c565b6040850152606083830101516001600160401b0381116102115761097990828401908585010161263c565b60608501528183016080818101519086015260a001516001600160401b038111610211576109ae90828401908585010161263c565b60a085015260c083830101516001600160401b038111610211576109d8918301908484010161263c565b60c084015280820160e0818101519085015261010080820151908501526101208082015190850152610140015180151581036102115761014084015261016082820101516004811015610211576101608401520161018081810151908301526101a0908101519082015291876107bc565b6040513d5f823e3d90fd5b3d9150815f823e610a658282611ecd565b6020818381010312610211578051916001600160401b03831161021157808201601f8484010112156102115782820151926001600160401b038411610b05578360051b60405194610ab96020830187611ecd565b8552602085019284016020828487010101116102115783820160200192915b60208282870101018410610af15750505050508461077b565b602080809486518152019401939250610ad8565b634e487b7160e01b5f52604160045260245ffd5b015190508580610566565b90600b84015f5260205f20915f5b601f1985168110610b785750918391600193600b95601f19811610610b60575b505050811b0191015561057b565b01515f1960f88460031b161c19169055858080610b52565b91926020600181928685015181550194019201610b32565b600b84015f5260205f20601f840160051c810160208510610bcd575b601f830160051c82018110610bc257505061054b565b5f8155600101610bac565b5080610bac565b015190508480610507565b600a83015f5260205f20905f5b601f1984168110610c315750600193949583601f19811610610c19575b505050811b01600a82015561051e565b01515f1960f88460031b161c19169055848080610c09565b9091602060018192858a015181550193019101610bec565b600a83015f5260205f20601f830160051c810160208410610c86575b601f830160051c82018110610c7b5750506104ee565b5f8155600101610c65565b5080610c65565b01519050848061049f565b600884015f5260205f20905f5b601f1984168110610cea5750600193949583601f19811610610cd2575b505050811b0160088301556104b6565b01515f1960f88460031b161c19169055848080610cc2565b9091602060018192858a015181550193019101610ca5565b600884015f5260205f20601f830160051c810160208410610d3f575b601f830160051c82018110610d34575050610486565b5f8155600101610d1e565b5080610d1e565b0151905084806103d5565b600183015f5260205f20905f5b601f1984168110610da35750600193949583601f19811610610d8b575b505050811b0160018201556103ec565b01515f1960f88460031b161c19169055848080610d7b565b9091602060018192858a015181550193019101610d5e565b600183015f5260205f20601f830160051c81019160208410610df9575b601f0160051c01905b818110610dee57506103bc565b5f8155600101610de1565b9091508190610dd8565b01519050848061037c565b601f19821690845f5260205f20915f5b818110610e5857509583600195969710610e40575b505050811b018255610390565b01515f1960f88460031b161c19169055848080610e33565b9192602060018192868b015181550194019201610e1e565b835f5260205f20601f830160051c81019160208410610eab575b601f0160051c01905b818110610ea05750610363565b5f8155600101610e93565b9091508190610e8a565b610100810151600454101561031a5760405162461bcd60e51b815260206004820152601f60248201527f44656c61792065786365656473206d6178696d756d207468726573686f6c64006044820152606490fd5b60405162461bcd60e51b815260206004820152601c60248201527f4675747572652074696d657374616d70206e6f7420616c6c6f776564000000006044820152606490fd5b60405162461bcd60e51b81526020600482015260116024820152700496e76616c69642074696d657374616d7607c1b6044820152606490fd5b60405162461bcd60e51b815260206004820152601560248201527424b73b30b634b210333634b3b43a10373ab6b132b960591b6044820152606490fd5b6044906040519063e2517d3f60e01b82523360048301526024820152fd5b34610211576020366003190112610211576004356001600160401b0381116102115761101c6110176020923690600401611f3f565b6121eb565b6040519015158152f35b34610211575f3660031901126102115761106b60405161104581611eb2565b60058152640352e302e360dc1b6020820152604051918291602083526020830190612058565b0390f35b34610211575f3660031901126102115760206040515f8152f35b34610211576020366003190112610211576004356001600160401b038111610211576110db60206110c06002933690600401611f3f565b6110c861227d565b8160405193828580945193849201611f5d565b60019082019081520301902001805460ff19169055005b346102115760403660031901126102115761110b61207d565b6004355f525f8051602061293483398151915260205260405f209060018060a01b03165f52602052602060ff60405f2054166040519015158152f35b34610211575f3660031901126102115761115f61227d565b611167612612565b5f80516020612954833981519152600160ff198254161790557f62e78cea01bee320cd4e420270b5ea74000d11b0c9f74754ebdbfc544b05a2586020604051338152a1005b34610211576020366003190112610211576004356111c861227d565b80156111ff576020817f29fbaea711f3fe3d1ebb463b7e8c46b33d7652973843648a3f3556508e5a116892600455604051908152a1005b60405162461bcd60e51b815260206004820152601760248201527f496e76616c69642064656c6179207468726573686f6c640000000000000000006044820152606490fd5b34610211575f366003190112610211576020600454604051908152f35b346102115760603660031901126102115761127a612093565b7ff0c57e16840df040f15088dc2f81fe391c3923bec73e23a9662efc9c229c6a009081549060ff8260401c1615916001600160401b038116801590816113c4575b60011490816113ba575b1590816113b1575b5061139f5767ffffffffffffffff198116600117845582611380575b506112f261267e565b6112fa61267e565b61130261267e565b60018060a01b03166001600160601b0360a01b600254161760025560243560035560443560045561133233612306565b5061133c336123a3565b5061134357005b68ff00000000000000001981541690557fc7f505b2f371ae2175ee4913f4499e1f2633a7b5936321eed1cdaeb6115181d2602060405160018152a1005b68ffffffffffffffffff191668010000000000000001178355836112e9565b60405163f92ee8a960e01b8152600490fd5b905015856112cd565b303b1591506112c5565b8491506112bb565b34610211575f3660031901126102115760206040517fa49807205ce4d355092ef5a8a18f56e8913cf4a201fbe287825b095693c217758152f35b346102115760203660031901126102115760043561142261227d565b8015611459576020817f240cba48475c9e29518b4697a38a0e2e3b39d2e0b1723f896062c05cc7f2196192600355604051908152a1005b60405162461bcd60e51b815260206004820152601760248201527f496e76616c69642076616c696469747920706572696f640000000000000000006044820152606490fd5b34610211575f36600319011261021157602060ff5f8051602061295483398151915254166040519015158152f35b34610211575f366003190112610211577f00000000000000000000000000000000000000000000000000000000000000006001600160a01b031630036115365760206040517f360894a13ba1a3210667c828492db98dca3e2076cc3735a920a3ca505d382bbc8152f35b60405163703e46dd60e11b8152600490fd5b60403660031901126102115761155c612093565b6024356001600160401b03811161021157366023820112156102115761158c903690602481600401359101611f09565b906001600160a01b037f00000000000000000000000000000000000000000000000000000000000000008116308114908115611744575b50611536576115d061227d565b6040516352d1902d60e01b8152908216916020918281600481875afa5f9181611715575b5061161257604051634c9c8ce360e01b815260048101859052602490fd5b9284937f360894a13ba1a3210667c828492db98dca3e2076cc3735a920a3ca505d382bbc908181036116fd5750823b156116e45780546001600160a01b03191682179055604051907fbc7cd75a20ee27fd9adebab32041f755214dbc6bffa90cc0225b39da2e5c2d3b5f80a28351156116ca57505f80848461025e96519101845af4903d156116c1573d6116a581611eee565b906116b36040519283611ecd565b81525f81943d92013e6128d0565b606092506128d0565b92505050346116d557005b63b398979f60e01b8152600490fd5b604051634c9c8ce360e01b815260048101839052602490fd5b60249060405190632a87526960e21b82526004820152fd5b9091508381813d831161173d575b61172d8183611ecd565b81010312610211575190866115f4565b503d611723565b9050817f360894a13ba1a3210667c828492db98dca3e2076cc3735a920a3ca505d382bbc54161415846115c3565b34610211575f3660031901126102115761178a61227d565b5f80516020612954833981519152805460ff8116156117d55760ff191690557f5db9ee0a495bf2e6ff9c91a7834c1ba4fdd244a5e8aa4e537bd38aeae4b073aa6020604051338152a1005b604051638dfc202b60e01b8152600490fd5b34610211575f366003190112610211576020600354604051908152f35b346102115760031960403682011261021157600435906001600160401b0390818311610211576101c0908336030112610211576040519161184483611e7b565b6004810135835260248101356001600160a01b03811681036102115760208401526044810135828111610211576118819060043691840101611f3f565b60408401526064810135828111610211576118a29060043691840101611f3f565b60608401526084810135608084015260a4810135828111610211576118cd9060043691840101611f3f565b60a084015260c4810135828111610211576118ee9060043691840101611f3f565b60c084015260e481013560e084015261010481013561010084015261012481013561012084015261192261014482016120a9565b610140840152610164810135906004821015610211576101a49161016085015261018481013561018085015201356101a08301526024359081116102115760209161197461101c9236906004016120b6565b90612565565b346102115760403660031901126102115761199361207d565b336001600160a01b038216036119af5761025e906004356124e6565b60405163334bd91960e11b8152600490fd5b34610211576020366003190112610211576004356001600160401b03811161021157611a6660206119f961106b933690600401611f3f565b6060610180604051611a0a81611e5f565b82815282858201525f60408201525f838201525f60808201525f60a08201525f60c08201525f60e08201525f610100820152826101208201525f6101408201528261016082015201528160405193828580945193849201611f5d565b81015f815203019020611a81600b6040519261068f84611e5f565b61018082015260405191829160208352610180611b52611b30611acb611ab585516101a060208a01526101c0890190612058565b6020860151888203601f190160408a0152612058565b6040850151606088015260608501516080880152608085015160a088015260a085015160c088015260c0850151151560e088015260e08501511515610100880152610100850151610120880152610120850151601f1988830301610140890152612058565b610140840151610160870152610160840151601f198783030184880152612058565b910151838203601f19016101a0850152612058565b346102115760403660031901126102115761025e600435611b8661207d565b90805f525f80516020612934833981519152602052611bab600160405f2001546122d8565b612463565b34610211576020366003190112610211576004355f525f805160206129348339815191526020526020600160405f200154604051908152f35b34610211575f366003190112610211576002546040516001600160a01b039091168152602090f35b34610211576020366003190112610211576004356001600160401b03811161021157611c41903690600401611f3f565b6040518181809351602081930191611c5892611f5d565b81015f8152036020019020611c6c81611fb6565b611c7860018301611fb6565b91600281015490600381015491600482015490600583015490600684015460078501549060088601611ca990611fb6565b93600987015495600a8801611cbd90611fb6565b97600b01611cca90611fb6565b986040519b8c9b8c6101a08091528d01611ce391612058565b8c810360208e0152611cf491612058565b9560408c015260608b015260808a015260a089015260ff8116151560c089015260081c60ff16151560e0880152610100870152858103610120870152611d3991612058565b90610140850152838103610160850152611d5291612058565b82810361018084015261106b91612058565b34610211576020366003190112610211576004356001600160401b03811161021157611d9b60206110c86060933690600401611f3f565b8101600181520301902060018060a01b038154169060ff600260018301549201541690604051928352602083015215156040820152f35b34610211575f3660031901126102115760206040517f68e79a7bf1e0bc45d0a330c573bc367f9cf464fd326078812f301165fbda4ef18152f35b34610211576020366003190112610211576004359063ffffffff60e01b821680920361021157602091637965db0b60e01b8114908115611e4e575b5015158152f35b6301ffc9a760e01b14905083611e47565b6101a081019081106001600160401b03821117610b0557604052565b6101c081019081106001600160401b03821117610b0557604052565b606081019081106001600160401b03821117610b0557604052565b604081019081106001600160401b03821117610b0557604052565b90601f801991011681019081106001600160401b03821117610b0557604052565b6001600160401b038111610b0557601f01601f191660200190565b929192611f1582611eee565b91611f236040519384611ecd565b829481845281830111610211578281602093845f960137010152565b9080601f8301121561021157816020611f5a93359101611f09565b90565b5f5b838110611f6e5750505f910152565b8181015183820152602001611f5f565b90600182811c92168015611fac575b6020831014611f9857565b634e487b7160e01b5f52602260045260245ffd5b91607f1691611f8d565b9060405191825f8254611fc881611f7e565b908184526020946001916001811690815f146120365750600114611ff8575b505050611ff692500383611ecd565b565b5f90815285812095935091905b81831061201e575050611ff693508201015f8080611fe7565b85548884018501529485019487945091830191612005565b92505050611ff694925060ff191682840152151560051b8201015f8080611fe7565b9060209161207181518092818552858086019101611f5d565b601f01601f1916010190565b602435906001600160a01b038216820361021157565b600435906001600160a01b038216820361021157565b3590811515820361021157565b91906101a08382031261021157604051906120d082611e5f565b81938035916001600160401b039283811161021157816120f1918401611f3f565b84526020820135838111610211578161210b918401611f3f565b602085015260408201356040850152606082013560608501526080820135608085015260a082013560a085015261214460c083016120a9565b60c085015261215560e083016120a9565b60e0850152610100808301359085015261012080830135848111610211578261217f918501611f3f565b9085015261014080830135908501526101608083013584811161021157826121a8918501611f3f565b908501526101809283830135908111610211576121c59201611f3f565b910152565b919082039182116121d757565b634e487b7160e01b5f52601160045260245ffd5b6020612204918160405193828580945193849201611f5d565b8101600181520301902060405161221a81611e97565b60018060a01b03825416815260ff60026001840154938460208501520154161590604082159101526122585761225090426121ca565b600354101590565b505f90565b61227590602060405192828480945193849201611f5d565b810103902090565b335f9081527fb16e88c42fd4e48df2dd6a2eabd6bc9aec654ec170056b470819f8892cc6431c60205260409020547fa49807205ce4d355092ef5a8a18f56e8913cf4a201fbe287825b095693c217759060ff1615610fc45750565b805f525f8051602061293483398151915260205260405f20335f5260205260ff60405f20541615610fc45750565b6001600160a01b03165f8181527fb7db2dd08fcb62d0c9e08c51941cae53c267786a0b75803fb7960902fc8ef97d60205260409020545f805160206129348339815191529060ff1661239d575f805260205260405f20815f5260205260405f20600160ff1982541617905533905f7f2f8788117e7eff1d82e926ec794901d17c78024a50270940304540a733656f0d8180a4600190565b50505f90565b6001600160a01b03165f8181527fb16e88c42fd4e48df2dd6a2eabd6bc9aec654ec170056b470819f8892cc6431c60205260409020547fa49807205ce4d355092ef5a8a18f56e8913cf4a201fbe287825b095693c2177591905f805160206129348339815191529060ff1661245c57825f5260205260405f20815f5260205260405f20600160ff1982541617905533917f2f8788117e7eff1d82e926ec794901d17c78024a50270940304540a733656f0d5f80a4600190565b5050505f90565b90815f525f805160206129348339815191528060205260405f209160018060a01b031691825f5260205260ff60405f205416155f1461245c57825f5260205260405f20815f5260205260405f20600160ff1982541617905533917f2f8788117e7eff1d82e926ec794901d17c78024a50270940304540a733656f0d5f80a4600190565b90815f525f805160206129348339815191528060205260405f209160018060a01b031691825f5260205260ff60405f2054165f1461245c57825f5260205260405f20815f5260205260405f2060ff19815416905533917ff6391f5c32d9c69d2a47ea670b442974b53935d1edc7fd64eb21e047a839171b5f80a4600190565b6040810151805160208092012083518281519101200361245c5760a08201518181519101206101608401518281519101200361245c5760c0820151818151910120906101808401519081519101200361239d57610140810151151580612605575b6125fe5760e0820151151591826125e7575b50506125e2575f90565b600190565b610120919250610100015191015111155f806125d8565b5050600190565b5060c082015115156125c6565b60ff5f80516020612954833981519152541661262a57565b60405163d93c066560e01b8152600490fd5b81601f8201121561021157805161265281611eee565b926126606040519485611ecd565b8184526020828401011161021157611f5a9160208085019101611f5d565b60ff7ff0c57e16840df040f15088dc2f81fe391c3923bec73e23a9662efc9c229c6a005460401c16156126ad57565b604051631afcd79f60e31b8152600490fd5b60c08201511515806127c6575b6127985760e082015115159081612782575b5061270f57506040516126f081611eb2565b600f81526e2ab735b737bbb7103a3934b3b3b2b960891b602082015290565b61010061271d9101516127d4565b611f5a604260405180937f44656c6179206578636565646564207468726573686f6c643a200000000000006020830152612761815180926020603a86019101611f5d565b810167206d696e7574657360c01b603a820152036022810184520182611ecd565b905061012061010083015191015111155f6126de565b50506040516127a681611eb2565b601081526f119b1a59da1d0818d85b98d95b1b195960821b602082015290565b5061014081015115156126cc565b9081156128b1579080815f925b61289457506127ef82611eee565b916127fd6040519384611ecd565b808352601f1961280c82611eee565b01366020850137905b81811561288e575f1983019283116121d75782600a90818404938285029285840414851517156121d75761284c60ff9384926121ca565b166030019182116121d7578551111561287a5760f81b6001600160f81b0319165f1a908401601f0153612815565b634e487b7160e01b5f52603260045260245ffd5b50505090565b909290915f1981146121d7576001600a91019204809391936127e1565b90506040516128bf81611eb2565b60018152600360fc1b602082015290565b906128f757508051156128e557602081519101fd5b60405163d6bda27560e01b8152600490fd5b8151158061292a575b612908575090565b604051639996b31560e01b81526001600160a01b039091166004820152602490fd5b50803b1561290056fe02dd7bc7dec4dceedda775e58dd541e08a116c6c53815c0bd028192f7b626800cd5ed15c6e187e77e9aee88184c21f4f2182ab5827cb3b7e07fbedcd63f03300a2646970667358221220b2475d53618a3610daa70cf8222a28e524997e7a11541b546cb1ac3b22b1752564736f6c63430008180033","linkReferences":{}},"methodIdentifiers":{"ADMIN_ROLE()":"75b238fc","DEFAULT_ADMIN_ROLE()":"a217fddf","ORACLE_ROLE()":"07e2cea5","UPGRADE_INTERFACE_VERSION()":"ad3cb1cc","checkPolicyTrigger((uint256,address,string,string,uint256,string,string,uint256,uint256,uint256,bool,uint8,uint256,uint256),(string,string,uint256,uint256,uint256,uint256,bool,bool,uint256,string,uint256,string,string))":"37f276ff","dataValidityPeriod()":"3abec82e","flightStatuses(string)":"18fccc7d","getFlightStatus(string)":"31c3c4ba","getRoleAdmin(bytes32)":"248a9ca3","grantRole(bytes32,address)":"2f2ff15d","hasRole(bytes32,address)":"91d14854","initialize(address,uint256,uint256)":"7a1ac61e","invalidateFlightData(string)":"936acc33","isFlightDataValid(string)":"c383e282","maxDelayThreshold()":"7bee7f69","oracleData(string)":"16ee199d","pause()":"8456cb59","paused()":"5c975abb","policyRegistry()":"1c4dd7d0","proxiableUUID()":"52d1902d","renounceRole(bytes32,address)":"36568abe","revokeRole(bytes32,address)":"d547741f","setDataValidityPeriod(uint256)":"713db2dd","setMaxDelayThreshold(uint256)":"7e879e9e","setPolicyRegistry(address)":"e015c85d","supportsInterface(bytes4)":"01ffc9a7","unpause()":"3f4ba83a","updateFlightStatus((string,string,uint256,uint256,uint256,uint256,bool,bool,uint256,string,uint256,string,string))":"c843ed43","upgradeToAndCall(address,bytes)":"4f1ef286"},"id":37}