{"abi":[{"type":"constructor","inputs":[],"stateMutability":"nonpayable"},{"type":"function","name":"ADMIN_ROLE","inputs":[],"outputs":[{"name":"","type":"bytes32","internalType":"bytes32"}],"stateMutability":"view"},{"type":"function","name":"DEFAULT_ADMIN_ROLE","inputs":[],"outputs":[{"name":"","type":"bytes32","internalType":"bytes32"}],"stateMutability":"view"},{"type":"function","name":"INSURANCE_ROLE","inputs":[],"outputs":[{"name":"","type":"bytes32","internalType":"bytes32"}],"stateMutability":"view"},{"type":"function","name":"UPGRADE_INTERFACE_VERSION","inputs":[],"outputs":[{"name":"","type":"string","internalType":"string"}],"stateMutability":"view"},{"type":"function","name":"VAULT_ROLE","inputs":[],"outputs":[{"name":"","type":"bytes32","internalType":"bytes32"}],"stateMutability":"view"},{"type":"function","name":"dailyPayoutLimit","inputs":[],"outputs":[{"name":"","type":"uint256","internalType":"uint256"}],"stateMutability":"view"},{"type":"function","name":"dailyPayoutUsed","inputs":[],"outputs":[{"name":"","type":"uint256","internalType":"uint256"}],"stateMutability":"view"},{"type":"function","name":"depositFunds","inputs":[{"name":"amount","type":"uint256","internalType":"uint256"}],"outputs":[],"stateMutability":"nonpayable"},{"type":"function","name":"emergencyWithdraw","inputs":[{"name":"to","type":"address","internalType":"address"},{"name":"amount","type":"uint256","internalType":"uint256"}],"outputs":[],"stateMutability":"nonpayable"},{"type":"function","name":"getBalance","inputs":[],"outputs":[{"name":"","type":"uint256","internalType":"uint256"}],"stateMutability":"view"},{"type":"function","name":"getRemainingDailyLimit","inputs":[],"outputs":[{"name":"","type":"uint256","internalType":"uint256"}],"stateMutability":"view"},{"type":"function","name":"getRoleAdmin","inputs":[{"name":"role","type":"bytes32","internalType":"bytes32"}],"outputs":[{"name":"","type":"bytes32","internalType":"bytes32"}],"stateMutability":"view"},{"type":"function","name":"grantRole","inputs":[{"name":"role","type":"bytes32","internalType":"bytes32"},{"name":"account","type":"address","internalType":"address"}],"outputs":[],"stateMutability":"nonpayable"},{"type":"function","name":"hasRole","inputs":[{"name":"role","type":"bytes32","internalType":"bytes32"},{"name":"account","type":"address","internalType":"address"}],"outputs":[{"name":"","type":"bool","internalType":"bool"}],"stateMutability":"view"},{"type":"function","name":"initialize","inputs":[{"name":"_usdc","type":"address","internalType":"address"},{"name":"_insuranceContract","type":"address","internalType":"address"},{"name":"_maxPayoutAmount","type":"uint256","internalType":"uint256"},{"name":"_dailyPayoutLimit","type":"uint256","internalType":"uint256"}],"outputs":[],"stateMutability":"nonpayable"},{"type":"function","name":"insuranceContract","inputs":[],"outputs":[{"name":"","type":"address","internalType":"address"}],"stateMutability":"view"},{"type":"function","name":"lastResetDay","inputs":[],"outputs":[{"name":"","type":"uint256","internalType":"uint256"}],"stateMutability":"view"},{"type":"function","name":"maxPayoutAmount","inputs":[],"outputs":[{"name":"","type":"uint256","internalType":"uint256"}],"stateMutability":"view"},{"type":"function","name":"pause","inputs":[],"outputs":[],"stateMutability":"nonpayable"},{"type":"function","name":"paused","inputs":[],"outputs":[{"name":"","type":"bool","internalType":"bool"}],"stateMutability":"view"},{"type":"function","name":"proxiableUUID","inputs":[],"outputs":[{"name":"","type":"bytes32","internalType":"bytes32"}],"stateMutability":"view"},{"type":"function","name":"renounceRole","inputs":[{"name":"role","type":"bytes32","internalType":"bytes32"},{"name":"callerConfirmation","type":"address","internalType":"address"}],"outputs":[],"stateMutability":"nonpayable"},{"type":"function","name":"resetDailyPayout","inputs":[],"outputs":[],"stateMutability":"nonpayable"},{"type":"function","name":"revokeRole","inputs":[{"name":"role","type":"bytes32","internalType":"bytes32"},{"name":"account","type":"address","internalType":"address"}],"outputs":[],"stateMutability":"nonpayable"},{"type":"function","name":"setDailyPayoutLimit","inputs":[{"name":"_dailyPayoutLimit","type":"uint256","internalType":"uint256"}],"outputs":[],"stateMutability":"nonpayable"},{"type":"function","name":"setInsuranceContract","inputs":[{"name":"_insuranceContract","type":"address","internalType":"address"}],"outputs":[],"stateMutability":"nonpayable"},{"type":"function","name":"setMaxPayoutAmount","inputs":[{"name":"_maxPayoutAmount","type":"uint256","internalType":"uint256"}],"outputs":[],"stateMutability":"nonpayable"},{"type":"function","name":"supportsInterface","inputs":[{"name":"interfaceId","type":"bytes4","internalType":"bytes4"}],"outputs":[{"name":"","type":"bool","internalType":"bool"}],"stateMutability":"view"},{"type":"function","name":"totalDeposits","inputs":[],"outputs":[{"name":"","type":"uint256","internalType":"uint256"}],"stateMutability":"view"},{"type":"function","name":"totalPayouts","inputs":[],"outputs":[{"name":"","type":"uint256","internalType":"uint256"}],"stateMutability":"view"},{"type":"function","name":"totalWithdrawals","inputs":[],"outputs":[{"name":"","type":"uint256","internalType":"uint256"}],"stateMutability":"view"},{"type":"function","name":"transferTo","inputs":[{"name":"to","type":"address","internalType":"address"},{"name":"amount","type":"uint256","internalType":"uint256"}],"outputs":[{"name":"","type":"bool","internalType":"bool"}],"stateMutability":"nonpayable"},{"type":"function","name":"unpause","inputs":[],"outputs":[],"stateMutability":"nonpayable"},{"type":"function","name":"upgradeToAndCall","inputs":[{"name":"newImplementation","type":"address","internalType":"address"},{"name":"data","type":"bytes","internalType":"bytes"}],"outputs":[],"stateMutability":"payable"},{"type":"function","name":"usdc","inputs":[],"outputs":[{"name":"","type":"address","internalType":"contract IERC20"}],"stateMutability":"view"},{"type":"function","name":"withdrawFunds","inputs":[{"name":"to","type":"address","internalType":"address"},{"name":"amount","type":"uint256","internalType":"uint256"}],"outputs":[],"stateMutability":"nonpayable"},{"type":"event","name":"DailyPayoutLimitUpdated","inputs":[{"name":"newLimit","type":"uint256","indexed":false,"internalType":"uint256"}],"anonymous":false},{"type":"event","name":"FundsDeposited","inputs":[{"name":"from","type":"address","indexed":true,"internalType":"address"},{"name":"amount","type":"uint256","indexed":false,"internalType":"uint256"},{"name":"totalDeposits","type":"uint256","indexed":false,"internalType":"uint256"}],"anonymous":false},{"type":"event","name":"FundsWithdrawn","inputs":[{"name":"to","type":"address","indexed":true,"internalType":"address"},{"name":"amount","type":"uint256","indexed":false,"internalType":"uint256"},{"name":"totalWithdrawals","type":"uint256","indexed":false,"internalType":"uint256"}],"anonymous":false},{"type":"event","name":"Initialized","inputs":[{"name":"version","type":"uint64","indexed":false,"internalType":"uint64"}],"anonymous":false},{"type":"event","name":"InsuranceContractUpdated","inputs":[{"name":"newContract","type":"address","indexed":false,"internalType":"address"}],"anonymous":false},{"type":"event","name":"MaxPayoutAmountUpdated","inputs":[{"name":"newAmount","type":"uint256","indexed":false,"internalType":"uint256"}],"anonymous":false},{"type":"event","name":"Paused","inputs":[{"name":"account","type":"address","indexed":false,"internalType":"address"}],"anonymous":false},{"type":"event","name":"PayoutTransferred","inputs":[{"name":"to","type":"address","indexed":true,"internalType":"address"},{"name":"amount","type":"uint256","indexed":false,"internalType":"uint256"},{"name":"totalPayouts","type":"uint256","indexed":false,"internalType":"uint256"}],"anonymous":false},{"type":"event","name":"RoleAdminChanged","inputs":[{"name":"role","type":"bytes32","indexed":true,"internalType":"bytes32"},{"name":"previousAdminRole","type":"bytes32","indexed":true,"internalType":"bytes32"},{"name":"newAdminRole","type":"bytes32","indexed":true,"internalType":"bytes32"}],"anonymous":false},{"type":"event","name":"RoleGranted","inputs":[{"name":"role","type":"bytes32","indexed":true,"internalType":"bytes32"},{"name":"account","type":"address","indexed":true,"internalType":"address"},{"name":"sender","type":"address","indexed":true,"internalType":"address"}],"anonymous":false},{"type":"event","name":"RoleRevoked","inputs":[{"name":"role","type":"bytes32","indexed":true,"internalType":"bytes32"},{"name":"account","type":"address","indexed":true,"internalType":"address"},{"name":"sender","type":"address","indexed":true,"internalType":"address"}],"anonymous":false},{"type":"event","name":"Unpaused","inputs":[{"name":"account","type":"address","indexed":false,"internalType":"address"}],"anonymous":false},{"type":"event","name":"Upgraded","inputs":[{"name":"implementation","type":"address","indexed":true,"internalType":"address"}],"anonymous":false},{"type":"error","name":"AccessControlBadConfirmation","inputs":[]},{"type":"error","name":"AccessControlUnauthorizedAccount","inputs":[{"name":"account","type":"address","internalType":"address"},{"name":"neededRole","type":"bytes32","internalType":"bytes32"}]},{"type":"error","name":"AddressEmptyCode","inputs":[{"name":"target","type":"address","internalType":"address"}]},{"type":"error","name":"ERC1967InvalidImplementation","inputs":[{"name":"implementation","type":"address","internalType":"address"}]},{"type":"error","name":"ERC1967NonPayable","inputs":[]},{"type":"error","name":"EnforcedPause","inputs":[]},{"type":"error","name":"ExpectedPause","inputs":[]},{"type":"error","name":"FailedCall","inputs":[]},{"type":"error","name":"InvalidInitialization","inputs":[]},{"type":"error","name":"NotInitializing","inputs":[]},{"type":"error","name":"SafeERC20FailedOperation","inputs":[{"name":"token","type":"address","internalType":"address"}]},{"type":"error","name":"UUPSUnauthorizedCallContext","inputs":[]},{"type":"error","name":"UUPSUnsupportedProxiableUUID","inputs":[{"name":"slot","type":"bytes32","internalType":"bytes32"}]}],"bytecode":{"object":"0x60a080604052346100cc57306080527ff0c57e16840df040f15088dc2f81fe391c3923bec73e23a9662efc9c229c6a009081549060ff8260401c166100bd57506001600160401b036002600160401b031982821601610078575b60405161193a90816100d18239608051818181610a130152610af10152f35b6001600160401b031990911681179091556040519081527fc7f505b2f371ae2175ee4913f4499e1f2633a7b5936321eed1cdaeb6115181d290602090a15f8080610059565b63f92ee8a960e01b8152600490fd5b5f80fdfe6080604090808252600480361015610015575f80fd5b5f3560e01c91826301ffc9a71461124b5750816312065fe0146111c25781631259a5c8146111a4578163150768b01461118657816317cbdddb14611139578163248a9ca3146111035781632ccb1b3014610ebd5781632f2ff15d14610e9557816336568abe14610e515781633b76594d14610d875781633e413bee14610d605781633f4ba83a14610ceb5781634089b17014610ccd5781634f1ef28614610a7757816352d1902d14610a005781635c975abb146109d15781635cd4f8dd14610930578163604646271461091457816375b238fc146108da5781637d882097146108bc5781638456cb591461085757816391d148541461080757816395ccea671461074457816398c4f1ac1461070a578163a15f39e8146106e7578163a217fddf146106cd578163ad3cb1cc1461062f578163af289e6014610608578163b752a74b146105ce578163bd0a6577146105b0578163c107532914610485578163d012a5a81461045d578163d547741f14610415578163df3146011461035a578163eb990c59146101cd575063f8d96c98146101ac575f80fd5b346101c9575f3660031901126101c9576020906005549051908152f35b5f80fd5b9050346101c95760803660031901126101c9576101e861129d565b906101f16112b3565b917ff0c57e16840df040f15088dc2f81fe391c3923bec73e23a9662efc9c229c6a0092835460ff81871c16159367ffffffffffffffff821680159081610352575b6001149081610348575b15908161033f575b50610331575067ffffffffffffffff198116600117855583610312575b5061026a611820565b610272611820565b61027a611820565b60018060a01b0390816bffffffffffffffffffffffff60a01b9316835f5416175f55169060015416176001556044356005556064356006556201518042046008556102c433611562565b506102ce336115f9565b506102d557005b805468ff00000000000000001916905551600181527fc7f505b2f371ae2175ee4913f4499e1f2633a7b5936321eed1cdaeb6115181d290602090a1005b68ffffffffffffffffff1916680100000000000000011784555f610261565b865163f92ee8a960e01b8152fd5b9050155f610244565b303b15915061023c565b869150610232565b9050346101c95760203660031901126101c95761037561129d565b61037d61143f565b6001600160a01b03169081156103d2577fab3448b430952ede9b8fd87a21a420d1e899f3855992101a39e53138f1e411c760208385816bffffffffffffffffffffffff60a01b600154161760015551908152a1005b606490602084519162461bcd60e51b8352820152601a60248201527f496e76616c696420696e737572616e636520636f6e74726163740000000000006044820152fd5b82346101c957806003193601126101c95761045b913561045660016104386112b3565b93835f525f805160206118c58339815191526020525f2001546114b8565b61173c565b005b82346101c9575f3660031901126101c95760015490516001600160a01b039091168152602090f35b82346101c957806003193601126101c95761049e61129d565b906024356104aa61143f565b6104b26114e6565b6001600160a01b0383811694906104ca861515611367565b6104d583151561131b565b5f541683516370a0823160e01b81523083820152602081602481855afa9081156105a6575f91610554575b507ffbc3a599b784fe88772fc5abcc07223f64ca0b13acc341f4fb1e46bef0510eb4956105399261053486809410156113a7565b611510565b6105448282546113ea565b80915582519182526020820152a2005b90506020813d60201161059e575b8161056f602093836112c9565b810103126101c957517ffbc3a599b784fe88772fc5abcc07223f64ca0b13acc341f4fb1e46bef0510eb4610500565b3d9150610562565b85513d5f823e3d90fd5b82346101c9575f3660031901126101c9576020906007549051908152f35b82346101c9575f3660031901126101c957602090517ffec7cd74e5c65b641d49ecc2e89f646c7c0bcae85dc50f9616bf9c798cedda8b8152f35b346101c9575f3660031901126101c95761062061143f565b5f600755620151804204600855005b82346101c9575f3660031901126101c9578051918183019083821067ffffffffffffffff8311176106ba57508152600582526020640352e302e360dc1b60208401528151928391602083528151918260208501525f5b8381106106a45750505f83830185015250601f01601f19168101030190f35b8181018301518782018701528694508201610685565b604190634e487b7160e01b5f525260245ffd5b82346101c9575f3660031901126101c957602090515f8152f35b82346101c9575f3660031901126101c95760209061070361140b565b9051908152f35b82346101c9575f3660031901126101c957602090517f31e0210044b4f6757ce6aa31f9c6e8d4896d24a755014887391a926c5224d9598152f35b9050346101c957816003193601126101c95761075e61129d565b6024359161076a61143f565b6001600160a01b0361077f8382161515611367565b61078a84151561131b565b5f5416908451906370a0823160e01b82523090820152602081602481855afa9485156107fe57505f946107c8575b506105348361045b9510156113a7565b93506020843d6020116107f6575b816107e3602093836112c9565b810103126101c9579251926105346107b8565b3d91506107d6565b513d5f823e3d90fd5b82346101c957806003193601126101c9576020916108236112b3565b90355f525f805160206118c58339815191528352815f209060018060a01b03165f52825260ff815f20541690519015158152f35b82346101c9575f3660031901126101c95760207f62e78cea01bee320cd4e420270b5ea74000d11b0c9f74754ebdbfc544b05a2589161089461143f565b61089c6114e6565b5f805160206118e5833981519152805460ff1916600117905551338152a1005b82346101c9575f3660031901126101c9576020906003549051908152f35b82346101c9575f3660031901126101c957602090517fa49807205ce4d355092ef5a8a18f56e8913cf4a201fbe287825b095693c217758152f35b82346101c9575f3660031901126101c957602091549051908152f35b9050346101c95760203660031901126101c95780359061094e61143f565b8115610984577f06f81448293d6767965ee993112b1db172b79464a815672433836b0accc91990602083858160055551908152a1005b608490602084519162461bcd60e51b8352820152602160248201527f4d6178207061796f7574206d7573742062652067726561746572207468616e206044820152600360fc1b6064820152fd5b82346101c9575f3660031901126101c95760209060ff5f805160206118e5833981519152541690519015158152f35b82346101c9575f3660031901126101c9577f00000000000000000000000000000000000000000000000000000000000000006001600160a01b03163003610a6a57602090517f360894a13ba1a3210667c828492db98dca3e2076cc3735a920a3ca505d382bbc8152f35b5163703e46dd60e11b8152fd5b9050816003193601126101c957610a8c61129d565b602492833567ffffffffffffffff81116101c957366023820112156101c95780840135610ab8816112ff565b93610ac5845195866112c9565b81855260209182860193368983830101116101c957815f928a8693018737870101526001600160a01b037f00000000000000000000000000000000000000000000000000000000000000008116308114908115610c9f575b50610c8f57610b2a61143f565b81169484516352d1902d60e01b8152838189818a5afa5f9181610c60575b50610b635750505050505191634c9c8ce360e01b8352820152fd5b9087878794938b7f360894a13ba1a3210667c828492db98dca3e2076cc3735a920a3ca505d382bbc91828103610c4b5750853b15610c37575080546001600160a01b031916821790558451907fbc7cd75a20ee27fd9adebab32041f755214dbc6bffa90cc0225b39da2e5c2d3b5f80a2825115610c1d5750505f61045b9581925190845af4913d15610c13573d610c05610bfc826112ff565b925192836112c9565b81525f81943d92013e611861565b5060609250611861565b9450945050505034610c2b57005b63b398979f60e01b8152fd5b8651634c9c8ce360e01b8152808501849052fd5b8751632a87526960e21b815280860191909152fd5b9091508481813d8311610c88575b610c7881836112c9565b810103126101c95751905f610b48565b503d610c6e565b845163703e46dd60e11b81528790fd5b9050817f360894a13ba1a3210667c828492db98dca3e2076cc3735a920a3ca505d382bbc541614155f610b1d565b82346101c9575f3660031901126101c9576020906002549051908152f35b82346101c9575f3660031901126101c957610d0461143f565b5f805160206118e58339815191529182549060ff821615610d52577f5db9ee0a495bf2e6ff9c91a7834c1ba4fdd244a5e8aa4e537bd38aeae4b073aa602084868560ff1916905551338152a1005b8251638dfc202b60e01b8152fd5b82346101c9575f3660031901126101c9575f5490516001600160a01b039091168152602090f35b82346101c95760203660031901126101c957813591610da461143f565b610dac6114e6565b610db783151561131b565b5f5482516323b872dd60e01b602082015233602482015230604482015260648082018690528152916001600160a01b039091169060a083019083821067ffffffffffffffff8311176106ba575083527fbee4fe3675934fca827426c793623996a3079255089bda3a717019ffc5db27659291610e32916117bb565b610e3e836003546113ea565b80600355815193845260208401523392a2005b82346101c957806003193601126101c957610e6a6112b3565b90336001600160a01b03831603610e86575061045b913561173c565b5163334bd91960e11b81529050fd5b82346101c957806003193601126101c95761045b9135610eb860016104386112b3565b6116b9565b82346101c957806003193601126101c957610ed661129d565b916024357ffec7cd74e5c65b641d49ecc2e89f646c7c0bcae85dc50f9616bf9c798cedda8b93845f526020945f805160206118c58339815191528652845f20335f52865260ff855f205416156110e55750610f2f6114e6565b610f3a82151561131b565b6001600160a01b038181169390610f52851515611367565b60055484116110a2575f54169085516370a0823160e01b815230828201528781602481865afa80156110985785905f90611067575b610f93925010156113a7565b620151804204600854811161105a575b50610fb0846007546113ea565b60065410611017575091610fe78186937ffa83372a556fb8118adf8bb0e47331253d8356326e6ac5291ffb0e95e186f16a95611510565b610ff3816002546113ea565b80600255611003826007546113ea565b600755825191825286820152a25160018152f35b855162461bcd60e51b8152908101879052601b60248201527f4461696c79207061796f7574206c696d697420657863656564656400000000006044820152606490fd5b5f60075560085587610fa3565b50508781813d8311611091575b61107e81836112c9565b810103126101c95784610f939151610f87565b503d611074565b87513d5f823e3d90fd5b855162461bcd60e51b8152808301889052601960248201527f416d6f756e742065786365656473206d6178207061796f7574000000000000006044820152606490fd5b845163e2517d3f60e01b815233818601526024810191909152604490fd5b82346101c95760203660031901126101c957602091355f525f805160206118c583398151915282526001815f2001549051908152f35b9050346101c95760203660031901126101c9577f0b915e4e4adf3ae813a8b876a709521a35cb69b9b48418735c50c884bcbea05491602091359061117b61143f565b8160065551908152a1005b82346101c9575f3660031901126101c9576020906006549051908152f35b82346101c9575f3660031901126101c9576020906008549051908152f35b82346101c9575f3660031901126101c9575f5481516370a0823160e01b81523093810193909352602090839060249082906001600160a01b03165afa9081156107fe575f91611216575b6020925051908152f35b90506020823d602011611243575b81611231602093836112c9565b810103126101c957602091519061120c565b3d9150611224565b90346101c95760203660031901126101c957359063ffffffff60e01b82168092036101c957602091637965db0b60e01b811490811561128c575b5015158152f35b6301ffc9a760e01b14905083611285565b600435906001600160a01b03821682036101c957565b602435906001600160a01b03821682036101c957565b90601f8019910116810190811067ffffffffffffffff8211176112eb57604052565b634e487b7160e01b5f52604160045260245ffd5b67ffffffffffffffff81116112eb57601f01601f191660200190565b1561132257565b60405162461bcd60e51b815260206004820152601d60248201527f416d6f756e74206d7573742062652067726561746572207468616e20300000006044820152606490fd5b1561136e57565b60405162461bcd60e51b8152602060048201526011602482015270125b9d985b1a59081c9958da5c1a595b9d607a1b6044820152606490fd5b156113ae57565b60405162461bcd60e51b8152602060048201526014602482015273496e73756666696369656e742062616c616e636560601b6044820152606490fd5b919082018092116113f757565b634e487b7160e01b5f52601160045260245ffd5b6008546201518042041161143957600654600754808211156114335781039081116113f75790565b50505f90565b60065490565b335f9081527fb16e88c42fd4e48df2dd6a2eabd6bc9aec654ec170056b470819f8892cc6431c60205260409020547fa49807205ce4d355092ef5a8a18f56e8913cf4a201fbe287825b095693c217759060ff161561149a5750565b6044906040519063e2517d3f60e01b82523360048301526024820152fd5b805f525f805160206118c583398151915260205260405f20335f5260205260ff60405f2054161561149a5750565b60ff5f805160206118e583398151915254166114fe57565b60405163d93c066560e01b8152600490fd5b60405163a9059cbb60e01b60208201526001600160a01b039092166024830152604480830193909352918152608081019167ffffffffffffffff8311828410176112eb57611560926040526117bb565b565b6001600160a01b03165f8181527fb7db2dd08fcb62d0c9e08c51941cae53c267786a0b75803fb7960902fc8ef97d60205260409020545f805160206118c58339815191529060ff16611433575f805260205260405f20815f5260205260405f20600160ff1982541617905533905f7f2f8788117e7eff1d82e926ec794901d17c78024a50270940304540a733656f0d8180a4600190565b6001600160a01b03165f8181527fb16e88c42fd4e48df2dd6a2eabd6bc9aec654ec170056b470819f8892cc6431c60205260409020547fa49807205ce4d355092ef5a8a18f56e8913cf4a201fbe287825b095693c2177591905f805160206118c58339815191529060ff166116b257825f5260205260405f20815f5260205260405f20600160ff1982541617905533917f2f8788117e7eff1d82e926ec794901d17c78024a50270940304540a733656f0d5f80a4600190565b5050505f90565b90815f525f805160206118c58339815191528060205260405f209160018060a01b031691825f5260205260ff60405f205416155f146116b257825f5260205260405f20815f5260205260405f20600160ff1982541617905533917f2f8788117e7eff1d82e926ec794901d17c78024a50270940304540a733656f0d5f80a4600190565b90815f525f805160206118c58339815191528060205260405f209160018060a01b031691825f5260205260ff60405f2054165f146116b257825f5260205260405f20815f5260205260405f2060ff19815416905533917ff6391f5c32d9c69d2a47ea670b442974b53935d1edc7fd64eb21e047a839171b5f80a4600190565b905f602091828151910182855af115611815575f513d61180c57506001600160a01b0381163b155b6117ea5750565b604051635274afe760e01b81526001600160a01b039091166004820152602490fd5b600114156117e3565b6040513d5f823e3d90fd5b60ff7ff0c57e16840df040f15088dc2f81fe391c3923bec73e23a9662efc9c229c6a005460401c161561184f57565b604051631afcd79f60e31b8152600490fd5b90611888575080511561187657602081519101fd5b60405163d6bda27560e01b8152600490fd5b815115806118bb575b611899575090565b604051639996b31560e01b81526001600160a01b039091166004820152602490fd5b50803b1561189156fe02dd7bc7dec4dceedda775e58dd541e08a116c6c53815c0bd028192f7b626800cd5ed15c6e187e77e9aee88184c21f4f2182ab5827cb3b7e07fbedcd63f03300a264697066735822122041df125c66631176f57a4bdd24aedf34f0ec6c5a788ab63398ac9ac6c6d89fab64736f6c63430008180033","linkReferences":{}},"methodIdentifiers":{"ADMIN_ROLE()":"75b238fc","DEFAULT_ADMIN_ROLE()":"a217fddf","INSURANCE_ROLE()":"b752a74b","UPGRADE_INTERFACE_VERSION()":"ad3cb1cc","VAULT_ROLE()":"98c4f1ac","dailyPayoutLimit()":"150768b0","dailyPayoutUsed()":"bd0a6577","depositFunds(uint256)":"3b76594d","emergencyWithdraw(address,uint256)":"95ccea67","getBalance()":"12065fe0","getRemainingDailyLimit()":"a15f39e8","getRoleAdmin(bytes32)":"248a9ca3","grantRole(bytes32,address)":"2f2ff15d","hasRole(bytes32,address)":"91d14854","initialize(address,address,uint256,uint256)":"eb990c59","insuranceContract()":"d012a5a8","lastResetDay()":"1259a5c8","maxPayoutAmount()":"f8d96c98","pause()":"8456cb59","paused()":"5c975abb","proxiableUUID()":"52d1902d","renounceRole(bytes32,address)":"36568abe","resetDailyPayout()":"af289e60","revokeRole(bytes32,address)":"d547741f","setDailyPayoutLimit(uint256)":"17cbdddb","setInsuranceContract(address)":"df314601","setMaxPayoutAmount(uint256)":"5cd4f8dd","supportsInterface(bytes4)":"01ffc9a7","totalDeposits()":"7d882097","totalPayouts()":"4089b170","totalWithdrawals()":"60464627","transferTo(address,uint256)":"2ccb1b30","unpause()":"3f4ba83a","upgradeToAndCall(address,bytes)":"4f1ef286","usdc()":"3e413bee","withdrawFunds(address,uint256)":"c1075329"},"id":38}