{"abi":[{"type":"constructor","inputs":[],"stateMutability":"nonpayable"},{"type":"function","name":"ADMIN_ROLE","inputs":[],"outputs":[{"name":"","type":"bytes32","internalType":"bytes32"}],"stateMutability":"view"},{"type":"function","name":"DEFAULT_ADMIN_ROLE","inputs":[],"outputs":[{"name":"","type":"bytes32","internalType":"bytes32"}],"stateMutability":"view"},{"type":"function","name":"INSURANCE_ROLE","inputs":[],"outputs":[{"name":"","type":"bytes32","internalType":"bytes32"}],"stateMutability":"view"},{"type":"function","name":"UPGRADE_INTERFACE_VERSION","inputs":[],"outputs":[{"name":"","type":"string","internalType":"string"}],"stateMutability":"view"},{"type":"function","name":"cancelPolicy","inputs":[{"name":"policyId","type":"uint256","internalType":"uint256"}],"outputs":[],"stateMutability":"nonpayable"},{"type":"function","name":"createPolicy","inputs":[{"name":"policyholder","type":"address","internalType":"address"},{"name":"flightNumber","type":"string","internalType":"string"},{"name":"airline","type":"string","internalType":"string"},{"name":"departureTime","type":"uint256","internalType":"uint256"},{"name":"departureAirport","type":"string","internalType":"string"},{"name":"arrivalAirport","type":"string","internalType":"string"},{"name":"premiumAmount","type":"uint256","internalType":"uint256"},{"name":"payoutAmount","type":"uint256","internalType":"uint256"},{"name":"delayThresholdMinutes","type":"uint256","internalType":"uint256"},{"name":"coversCancellation","type":"bool","internalType":"bool"}],"outputs":[{"name":"","type":"uint256","internalType":"uint256"}],"stateMutability":"nonpayable"},{"type":"function","name":"flightPolicies","inputs":[{"name":"","type":"string","internalType":"string"},{"name":"","type":"uint256","internalType":"uint256"}],"outputs":[{"name":"","type":"uint256","internalType":"uint256"}],"stateMutability":"view"},{"type":"function","name":"getActivePoliciesCount","inputs":[],"outputs":[{"name":"","type":"uint256","internalType":"uint256"}],"stateMutability":"view"},{"type":"function","name":"getFlightPolicies","inputs":[{"name":"flightNumber","type":"string","internalType":"string"}],"outputs":[{"name":"","type":"uint256[]","internalType":"uint256[]"}],"stateMutability":"view"},{"type":"function","name":"getPoliciesByStatus","inputs":[{"name":"status","type":"uint8","internalType":"enum PolicyRegistry.PolicyStatus"}],"outputs":[{"name":"","type":"uint256[]","internalType":"uint256[]"}],"stateMutability":"view"},{"type":"function","name":"getPolicy","inputs":[{"name":"policyId","type":"uint256","internalType":"uint256"}],"outputs":[{"name":"","type":"tuple","internalType":"struct PolicyRegistry.Policy","components":[{"name":"policyId","type":"uint256","internalType":"uint256"},{"name":"policyholder","type":"address","internalType":"address"},{"name":"flightNumber","type":"string","internalType":"string"},{"name":"airline","type":"string","internalType":"string"},{"name":"departureTime","type":"uint256","internalType":"uint256"},{"name":"departureAirport","type":"string","internalType":"string"},{"name":"arrivalAirport","type":"string","internalType":"string"},{"name":"premiumAmount","type":"uint256","internalType":"uint256"},{"name":"payoutAmount","type":"uint256","internalType":"uint256"},{"name":"delayThresholdMinutes","type":"uint256","internalType":"uint256"},{"name":"coversCancellation","type":"bool","internalType":"bool"},{"name":"status","type":"uint8","internalType":"enum PolicyRegistry.PolicyStatus"},{"name":"createdAt","type":"uint256","internalType":"uint256"},{"name":"updatedAt","type":"uint256","internalType":"uint256"}]}],"stateMutability":"view"},{"type":"function","name":"getRoleAdmin","inputs":[{"name":"role","type":"bytes32","internalType":"bytes32"}],"outputs":[{"name":"","type":"bytes32","internalType":"bytes32"}],"stateMutability":"view"},{"type":"function","name":"getUserPolicies","inputs":[{"name":"user","type":"address","internalType":"address"}],"outputs":[{"name":"","type":"uint256[]","internalType":"uint256[]"}],"stateMutability":"view"},{"type":"function","name":"grantRole","inputs":[{"name":"role","type":"bytes32","internalType":"bytes32"},{"name":"account","type":"address","internalType":"address"}],"outputs":[],"stateMutability":"nonpayable"},{"type":"function","name":"hasRole","inputs":[{"name":"role","type":"bytes32","internalType":"bytes32"},{"name":"account","type":"address","internalType":"address"}],"outputs":[{"name":"","type":"bool","internalType":"bool"}],"stateMutability":"view"},{"type":"function","name":"initialize","inputs":[],"outputs":[],"stateMutability":"nonpayable"},{"type":"function","name":"nextPolicyId","inputs":[],"outputs":[{"name":"","type":"uint256","internalType":"uint256"}],"stateMutability":"view"},{"type":"function","name":"policies","inputs":[{"name":"","type":"uint256","internalType":"uint256"}],"outputs":[{"name":"policyId","type":"uint256","internalType":"uint256"},{"name":"policyholder","type":"address","internalType":"address"},{"name":"flightNumber","type":"string","internalType":"string"},{"name":"airline","type":"string","internalType":"string"},{"name":"departureTime","type":"uint256","internalType":"uint256"},{"name":"departureAirport","type":"string","internalType":"string"},{"name":"arrivalAirport","type":"string","internalType":"string"},{"name":"premiumAmount","type":"uint256","internalType":"uint256"},{"name":"payoutAmount","type":"uint256","internalType":"uint256"},{"name":"delayThresholdMinutes","type":"uint256","internalType":"uint256"},{"name":"coversCancellation","type":"bool","internalType":"bool"},{"name":"status","type":"uint8","internalType":"enum PolicyRegistry.PolicyStatus"},{"name":"createdAt","type":"uint256","internalType":"uint256"},{"name":"updatedAt","type":"uint256","internalType":"uint256"}],"stateMutability":"view"},{"type":"function","name":"policyExists","inputs":[{"name":"policyId","type":"uint256","internalType":"uint256"}],"outputs":[{"name":"","type":"bool","internalType":"bool"}],"stateMutability":"view"},{"type":"function","name":"proxiableUUID","inputs":[],"outputs":[{"name":"","type":"bytes32","internalType":"bytes32"}],"stateMutability":"view"},{"type":"function","name":"renounceRole","inputs":[{"name":"role","type":"bytes32","internalType":"bytes32"},{"name":"callerConfirmation","type":"address","internalType":"address"}],"outputs":[],"stateMutability":"nonpayable"},{"type":"function","name":"revokeRole","inputs":[{"name":"role","type":"bytes32","internalType":"bytes32"},{"name":"account","type":"address","internalType":"address"}],"outputs":[],"stateMutability":"nonpayable"},{"type":"function","name":"supportsInterface","inputs":[{"name":"interfaceId","type":"bytes4","internalType":"bytes4"}],"outputs":[{"name":"","type":"bool","internalType":"bool"}],"stateMutability":"view"},{"type":"function","name":"totalPolicies","inputs":[],"outputs":[{"name":"","type":"uint256","internalType":"uint256"}],"stateMutability":"view"},{"type":"function","name":"updatePolicyStatus","inputs":[{"name":"policyId","type":"uint256","internalType":"uint256"},{"name":"newStatus","type":"uint8","internalType":"enum PolicyRegistry.PolicyStatus"}],"outputs":[],"stateMutability":"nonpayable"},{"type":"function","name":"upgradeToAndCall","inputs":[{"name":"newImplementation","type":"address","internalType":"address"},{"name":"data","type":"bytes","internalType":"bytes"}],"outputs":[],"stateMutability":"payable"},{"type":"function","name":"userPolicies","inputs":[{"name":"","type":"address","internalType":"address"},{"name":"","type":"uint256","internalType":"uint256"}],"outputs":[{"name":"","type":"uint256","internalType":"uint256"}],"stateMutability":"view"},{"type":"event","name":"Initialized","inputs":[{"name":"version","type":"uint64","indexed":false,"internalType":"uint64"}],"anonymous":false},{"type":"event","name":"PolicyCancelled","inputs":[{"name":"policyId","type":"uint256","indexed":true,"internalType":"uint256"},{"name":"policyholder","type":"address","indexed":true,"internalType":"address"}],"anonymous":false},{"type":"event","name":"PolicyCreated","inputs":[{"name":"policyId","type":"uint256","indexed":true,"internalType":"uint256"},{"name":"policyholder","type":"address","indexed":true,"internalType":"address"},{"name":"flightNumber","type":"string","indexed":false,"internalType":"string"},{"name":"premiumAmount","type":"uint256","indexed":false,"internalType":"uint256"},{"name":"payoutAmount","type":"uint256","indexed":false,"internalType":"uint256"}],"anonymous":false},{"type":"event","name":"PolicyStatusUpdated","inputs":[{"name":"policyId","type":"uint256","indexed":true,"internalType":"uint256"},{"name":"oldStatus","type":"uint8","indexed":false,"internalType":"enum PolicyRegistry.PolicyStatus"},{"name":"newStatus","type":"uint8","indexed":false,"internalType":"enum PolicyRegistry.PolicyStatus"}],"anonymous":false},{"type":"event","name":"RoleAdminChanged","inputs":[{"name":"role","type":"bytes32","indexed":true,"internalType":"bytes32"},{"name":"previousAdminRole","type":"bytes32","indexed":true,"internalType":"bytes32"},{"name":"newAdminRole","type":"bytes32","indexed":true,"internalType":"bytes32"}],"anonymous":false},{"type":"event","name":"RoleGranted","inputs":[{"name":"role","type":"bytes32","indexed":true,"internalType":"bytes32"},{"name":"account","type":"address","indexed":true,"internalType":"address"},{"name":"sender","type":"address","indexed":true,"internalType":"address"}],"anonymous":false},{"type":"event","name":"RoleRevoked","inputs":[{"name":"role","type":"bytes32","indexed":true,"internalType":"bytes32"},{"name":"account","type":"address","indexed":true,"internalType":"address"},{"name":"sender","type":"address","indexed":true,"internalType":"address"}],"anonymous":false},{"type":"event","name":"Upgraded","inputs":[{"name":"implementation","type":"address","indexed":true,"internalType":"address"}],"anonymous":false},{"type":"error","name":"AccessControlBadConfirmation","inputs":[]},{"type":"error","name":"AccessControlUnauthorizedAccount","inputs":[{"name":"account","type":"address","internalType":"address"},{"name":"neededRole","type":"bytes32","internalType":"bytes32"}]},{"type":"error","name":"AddressEmptyCode","inputs":[{"name":"target","type":"address","internalType":"address"}]},{"type":"error","name":"ERC1967InvalidImplementation","inputs":[{"name":"implementation","type":"address","internalType":"address"}]},{"type":"error","name":"ERC1967NonPayable","inputs":[]},{"type":"error","name":"FailedCall","inputs":[]},{"type":"error","name":"InvalidInitialization","inputs":[]},{"type":"error","name":"NotInitializing","inputs":[]},{"type":"error","name":"UUPSUnauthorizedCallContext","inputs":[]},{"type":"error","name":"UUPSUnsupportedProxiableUUID","inputs":[{"name":"slot","type":"bytes32","internalType":"bytes32"}]}],"bytecode":{"object":"0x60a080604052346100cc57306080527ff0c57e16840df040f15088dc2f81fe391c3923bec73e23a9662efc9c229c6a009081549060ff8260401c166100bd57506001600160401b036002600160401b031982821601610078575b604051611ff890816100d1823960805181818161109001526111490152f35b6001600160401b031990911681179091556040519081527fc7f505b2f371ae2175ee4913f4499e1f2633a7b5936321eed1cdaeb6115181d290602090a15f8080610059565b63f92ee8a960e01b8152600490fd5b5f80fdfe6080806040526004361015610012575f80fd5b5f3560e01c90816301ffc9a714611821575080630fe92cae146117ee57806319ac461414611779578063248a9ca3146117405780632b07fce3146114e05780632f2ff15d146114975780632f85b8661461142c57806336568abe146113e55780633d36adc51461138e5780634f1ef286146110fa57806352d1902d1461107e5780636c73d59914610fad57806375b238fc14610f735780638129fc1c14610e3d57806388fe737114610d9957806391d1485414610d44578063a217fddf14610d2a578063ad3cb1cc14610ccf578063b20e8bcc14610bf9578063b42b0be8146104c6578063b752a74b1461048c578063b963a5d11461037a578063c3d91c82146102fc578063cad0b8db146102df578063d3e89483146101b1578063d547741f146101665763f059d78e14610145575f80fd5b34610162575f366003190112610162576020600454604051908152f35b5f80fd5b34610162576040366003190112610162576101af60043561018561188a565b90805f525f80516020611fa38339815191526020526101aa600160405f200154611c71565b611e7f565b005b34610162576020366003190112610162576004355f908152602081905260409020805460018201546001600160a01b0316916101ef60028201611a3b565b6101fb60038301611a3b565b6004830154929061020e60058301611a3b565b9361021b60068401611a3b565b94600784015495600885015491600986015493600a87015495600b88015497600c0154986040519c8d9c8d6101c092839282526020820152604001528c01610262916118fc565b8b810360608d0152610273916118fc565b9060808b015289810360a08b015261028a916118fc565b88810360c08a015261029b916118fc565b9560e088015261010087015261012086015260ff8116151561014086015261016085019060081c60ff16906102cf91611921565b6101808401526101a08301520390f35b34610162575f366003190112610162576020600354604051908152f35b34610162575f366003190112610162575f6001906001600354905b81811061032957602083604051908152f35b805f525f60205260ff600a60405f20015460081c1690600482101561036657849115610356575b01610317565b9261036090611b7e565b92610350565b634e487b7160e01b5f52602160045260245ffd5b34610162576040366003190112610162576004356024356004811015610162576103a2611bf8565b6103be6103b9835f525f60205260405f2054151590565b611add565b815f525f60205260405f20600a810160ff815460081c1690831580159061047b575b1561043657836040936104177fa2df5e49d535763a303e346ea5157ce1f174dd7048a0c939830010b08e4b06019661043394611ba0565b600c4291015561042984518094611921565b6020830190611921565ba2005b60405162461bcd60e51b815260206004820152601960248201527f496e76616c696420737461747573207472616e736974696f6e000000000000006044820152606490fd5b5060048210156103665781156103e0565b34610162575f3660031901126101625760206040517ffec7cd74e5c65b641d49ecc2e89f646c7c0bcae85dc50f9616bf9c798cedda8b8152f35b3461016257610140366003190112610162576104e0611874565b6024356001600160401b038111610162576104ff9036906004016119bc565b906044356001600160401b0381116101625761051f9036906004016119bc565b906084356001600160401b0381116101625761053f9036906004016119bc565b9160a4356001600160401b0381116101625761055f9036906004016119bc565b6101243590811515820361016257610575611bf8565b6003549461058286611b7e565b600355604051936105928561192e565b86855260018060a01b03861660208601528760408601526060850152606435608085015260a084015260c083015260c43560e083015260e4356101008301526101043561012083015215156101408201525f61016082015242610180820152426101a0820152825f525f60205260405f2093815185556001850160018060a01b036020840151166bffffffffffffffffffffffff60a01b82541617905560408201518051906001600160401b03821161098a5781906106546002890154611a03565b601f8111610ba9575b50602090601f8311600114610b3b575f92610b30575b50508160011b915f199060031b1c19161760028601555b60608201518051906001600160401b03821161098a5781906106af6003890154611a03565b601f8111610ae0575b50602090601f8311600114610a72575f92610a67575b50508160011b915f199060031b1c19161760038601555b6080820151600486015560a08201518051906001600160401b03821161098a5781906107146005890154611a03565b601f8111610a17575b50602090601f83116001146109a9575f9261099e575b50508160011b915f199060031b1c19161760058601555b60c08201518051906001600160401b03821161098a57819061076f6006890154611a03565b601f811161093a575b50602090601f83116001146108cc575f926108c1575b50508160011b915f199060031b1c19161760068601555b60e0820151600786015561010082015160088601556101208201516009860155600a850191610140810151151560ff8019855416911617835561016081015191600483101561036657602096600c6101a061089b946108267f20a028c8a90fc12848027879825b8bca09785fc6d1398435a3cd59435776b60b978b99611ba0565b610180810151600b850155015191015560018060a01b0385165f52600187526108528460405f20611bbf565b610879846040518981855161086a8183858a016118db565b81016002815203019020611bbf565b610884600454611b7e565b6004556040519182916060835260608301906118fc565b60c4358289015260e43560408301526001600160a01b03909516940390a3604051908152f35b01519050878061078e565b9250600688015f5260205f20905f935b601f198416851061091f576001945083601f19811610610907575b505050811b0160068601556107a5565b01515f1960f88460031b161c191690558780806108f7565b818101518355602094850194600190930192909101906108dc565b909150600688015f5260205f20601f840160051c810160208510610983575b90849392915b601f830160051c82018110610975575050610778565b5f815585945060010161095f565b5080610959565b634e487b7160e01b5f52604160045260245ffd5b015190508780610733565b9250600588015f5260205f20905f935b601f19841685106109fc576001945083601f198116106109e4575b505050811b01600586015561074a565b01515f1960f88460031b161c191690558780806109d4565b818101518355602094850194600190930192909101906109b9565b909150600588015f5260205f20601f840160051c810160208510610a60575b90849392915b601f830160051c82018110610a5257505061071d565b5f8155859450600101610a3c565b5080610a36565b0151905087806106ce565b9250600388015f5260205f20905f935b601f1984168510610ac5576001945083601f19811610610aad575b505050811b0160038601556106e5565b01515f1960f88460031b161c19169055878080610a9d565b81810151835560209485019460019093019290910190610a82565b909150600388015f5260205f20601f840160051c810160208510610b29575b90849392915b601f830160051c82018110610b1b5750506106b8565b5f8155859450600101610b05565b5080610aff565b015190508780610673565b9250600288015f5260205f20905f935b601f1984168510610b8e576001945083601f19811610610b76575b505050811b01600286015561068a565b01515f1960f88460031b161c19169055878080610b66565b81810151835560209485019460019093019290910190610b4b565b909150600288015f5260205f20601f840160051c810160208510610bf2575b90849392915b601f830160051c82018110610be457505061065d565b5f8155859450600101610bce565b5080610bc8565b3461016257602036600319011261016257600435610c15611bf8565b610c2c6103b9825f525f60205260405f2054151590565b805f525f60205260405f20600a8101805460ff8160081c16600481101561036657610c965761ff00191661030017905542600c820155600101546001600160a01b0316907f7ccb895829fd342f252a2a7ec521b68a89d4fe7f83acc57725b5b358c290fca35f80a3005b60405162461bcd60e51b8152602060048201526011602482015270506f6c696379206e6f742061637469766560781b6044820152606490fd5b34610162575f3660031901126101625760405160408101908082106001600160401b0383111761098a57610d269160405260058152640352e302e360dc1b60208201526040519182916020835260208301906118fc565b0390f35b34610162575f3660031901126101625760206040515f8152f35b3461016257604036600319011261016257610d5d61188a565b6004355f525f80516020611fa383398151915260205260405f209060018060a01b03165f52602052602060ff60405f2054166040519015158152f35b3461016257602080600319360112610162576004356001600160401b0381116101625781610dce610de19236906004016119bc565b81604051938285809451938492016118db565b810160028152030190209060405190818184549182815201935f52815f20915f905b828210610e2657610d2685610e1a8189038261194a565b604051918291826118a0565b835486529485019460019384019390910190610e03565b34610162575f366003190112610162577ff0c57e16840df040f15088dc2f81fe391c3923bec73e23a9662efc9c229c6a00805460ff8160401c1615906001600160401b03811680159081610f6b575b6001149081610f61575b159081610f58575b50610f465767ffffffffffffffff198116600117835581610f27575b50610ec3611efe565b610ecb611efe565b610ed433611c9f565b50610ede33611d3c565b506001600355610eea57005b68ff00000000000000001981541690557fc7f505b2f371ae2175ee4913f4499e1f2633a7b5936321eed1cdaeb6115181d2602060405160018152a1005b68ffffffffffffffffff19166801000000000000000117825582610eba565b60405163f92ee8a960e01b8152600490fd5b90501584610e9e565b303b159150610e96565b839150610e8c565b34610162575f3660031901126101625760206040517fa49807205ce4d355092ef5a8a18f56e8913cf4a201fbe287825b095693c217758152f35b3461016257602080600319360112610162576004356004811015908161016257610fd8600454611b38565b925f92600191600354925b83811061102c578686610ff581611b38565b915f5b82811061100d5760405180610d2686826118a0565b8061101a60019284611b6a565b516110258287611b6a565b5201610ff8565b805f525f82528260ff600a60405f20015460081c169061036657600481101561036657851461105e575b600101610fe3565b9461107681876110706001948b611b6a565b52611b7e565b959050611056565b34610162575f366003190112610162577f00000000000000000000000000000000000000000000000000000000000000006001600160a01b031630036110e85760206040517f360894a13ba1a3210667c828492db98dca3e2076cc3735a920a3ca505d382bbc8152f35b60405163703e46dd60e11b8152600490fd5b60403660031901126101625761110e611874565b60249081356001600160401b03811161016257366023820112156101625761113f9036908481600401359101611986565b6001600160a01b037f00000000000000000000000000000000000000000000000000000000000000008116308114908115611360575b506110e857335f9081527fb16e88c42fd4e48df2dd6a2eabd6bc9aec654ec170056b470819f8892cc6431c60209081526040909120549091907fa49807205ce4d355092ef5a8a18f56e8913cf4a201fbe287825b095693c217759060ff161561134357508316926040516352d1902d60e01b81528281600481885afa5f9181611314575b5061121657604051634c9c8ce360e01b8152600481018690528690fd5b8490867f360894a13ba1a3210667c828492db98dca3e2076cc3735a920a3ca505d382bbc918281036112ff5750833b156112e9575080546001600160a01b03191682179055604051907fbc7cd75a20ee27fd9adebab32041f755214dbc6bffa90cc0225b39da2e5c2d3b5f80a28351156112cf57505f8084846101af96519101845af4903d156112c6573d6112aa8161196b565b906112b8604051928361194a565b81525f81943d92013e611f3f565b60609250611f3f565b92505050346112da57005b63b398979f60e01b8152600490fd5b604051634c9c8ce360e01b815260048101849052fd5b60405190632a87526960e21b82526004820152fd5b9091508381813d831161133c575b61132c818361194a565b81010312610162575190876111f9565b503d611322565b856044916040519163e2517d3f60e01b8352336004840152820152fd5b9050817f360894a13ba1a3210667c828492db98dca3e2076cc3735a920a3ca505d382bbc5416141585611175565b34610162576040366003190112610162576113a7611874565b6001600160a01b03165f90815260016020526040902080546024359190821015610162576020916113d7916119da565b90546040519160031b1c8152f35b34610162576040366003190112610162576113fe61188a565b336001600160a01b0382160361141a576101af90600435611e7f565b60405163334bd91960e11b8152600490fd5b34610162576040366003190112610162576004356001600160401b0381116101625761145c9036906004016119bc565b61147860206024359281604051938285809451938492016118db565b810160028152030190208054821015610162576020916113d7916119da565b34610162576040366003190112610162576101af6004356114b661188a565b90805f525f80516020611fa38339815191526020526114db600160405f200154611c71565b611dfc565b34610162576020366003190112610162576004355f6101a06040516115048161192e565b82815282602082015260606040820152606080820152826080820152606060a0820152606060c08201528260e0820152826101008201528261012082015282610140820152826101608201528261018082015201526115706103b9825f525f60205260405f2054151590565b5f525f60205260405f20604051906115878261192e565b8054825260018101546001600160a01b031660208301526115aa60028201611a3b565b60408301526115bb60038201611a3b565b6060830152600481015460808301526115d660058201611a3b565b60a08301526115e760068201611a3b565b60c0830152600781015460e083015260088101546101008301526009810154610120830152600a8101549060ff82161515610140840152600460ff8360081c1610156103665760ff600c9260081c16610160840152600b81015461018084015201546101a08201526040518091602082528051602083015260018060a01b0360208201511660408301526101a06116e461169260408401516101c060608701526101e08601906118fc565b6116cf6116b1606086015192601f1993848983030160808a01526118fc565b608086015160a088015260a0860151838883030160c08901526118fc565b9060c0850151908683030160e08701526118fc565b9160e0810151610100850152610100810151610120850152610120810151610140850152610140810151151561016085015261172a610160820151610180860190611921565b6101808101518285015201516101c08301520390f35b34610162576020366003190112610162576004355f525f80516020611fa38339815191526020526020600160405f200154604051908152f35b3461016257602080600319360112610162576001600160a01b0361179b611874565b165f5260018060205260405f20916040519182602085549182815201945f5260205f20925f905b8282106117d957610d2686610e1a818a038261194a565b845487529586019593830193908301906117c2565b346101625760203660031901126101625760206118176004355f525f60205260405f2054151590565b6040519015158152f35b34610162576020366003190112610162576004359063ffffffff60e01b821680920361016257602091637965db0b60e01b8114908115611863575b5015158152f35b6301ffc9a760e01b1490508361185c565b600435906001600160a01b038216820361016257565b602435906001600160a01b038216820361016257565b60209060206040818301928281528551809452019301915f5b8281106118c7575050505090565b8351855293810193928101926001016118b9565b5f5b8381106118ec5750505f910152565b81810151838201526020016118dd565b90602091611915815180928185528580860191016118db565b601f01601f1916010190565b9060048210156103665752565b6101c081019081106001600160401b0382111761098a57604052565b90601f801991011681019081106001600160401b0382111761098a57604052565b6001600160401b03811161098a57601f01601f191660200190565b9291926119928261196b565b916119a0604051938461194a565b829481845281830111610162578281602093845f960137010152565b9080601f83011215610162578160206119d793359101611986565b90565b80548210156119ef575f5260205f2001905f90565b634e487b7160e01b5f52603260045260245ffd5b90600182811c92168015611a31575b6020831014611a1d57565b634e487b7160e01b5f52602260045260245ffd5b91607f1691611a12565b9060405191825f8254611a4d81611a03565b908184526020946001916001811690815f14611abb5750600114611a7d575b505050611a7b9250038361194a565b565b5f90815285812095935091905b818310611aa3575050611a7b93508201015f8080611a6c565b85548884018501529485019487945091830191611a8a565b92505050611a7b94925060ff191682840152151560051b8201015f8080611a6c565b15611ae457565b60405162461bcd60e51b8152602060048201526015602482015274141bdb1a58de48191bd95cc81b9bdd08195e1a5cdd605a1b6044820152606490fd5b6001600160401b03811161098a5760051b60200190565b90611b4282611b21565b611b4f604051918261194a565b8281528092611b60601f1991611b21565b0190602036910137565b80518210156119ef5760209160051b010190565b5f198114611b8c5760010190565b634e487b7160e01b5f52601160045260245ffd5b9060048110156103665761ff0082549160081b169061ff001916179055565b80546801000000000000000081101561098a57611be1916001820181556119da565b819291549060031b91821b915f19901b1916179055565b335f9081527fa430574966134f2d1fc026184a8f59bf96aea256431f86230e26a76004245a9c60205260409020547ffec7cd74e5c65b641d49ecc2e89f646c7c0bcae85dc50f9616bf9c798cedda8b9060ff1615611c535750565b6044906040519063e2517d3f60e01b82523360048301526024820152fd5b805f525f80516020611fa383398151915260205260405f20335f5260205260ff60405f20541615611c535750565b6001600160a01b03165f8181527fb7db2dd08fcb62d0c9e08c51941cae53c267786a0b75803fb7960902fc8ef97d60205260409020545f80516020611fa38339815191529060ff16611d36575f805260205260405f20815f5260205260405f20600160ff1982541617905533905f7f2f8788117e7eff1d82e926ec794901d17c78024a50270940304540a733656f0d8180a4600190565b50505f90565b6001600160a01b03165f8181527fb16e88c42fd4e48df2dd6a2eabd6bc9aec654ec170056b470819f8892cc6431c60205260409020547fa49807205ce4d355092ef5a8a18f56e8913cf4a201fbe287825b095693c2177591905f80516020611fa38339815191529060ff16611df557825f5260205260405f20815f5260205260405f20600160ff1982541617905533917f2f8788117e7eff1d82e926ec794901d17c78024a50270940304540a733656f0d5f80a4600190565b5050505f90565b90815f525f80516020611fa38339815191528060205260405f209160018060a01b031691825f5260205260ff60405f205416155f14611df557825f5260205260405f20815f5260205260405f20600160ff1982541617905533917f2f8788117e7eff1d82e926ec794901d17c78024a50270940304540a733656f0d5f80a4600190565b90815f525f80516020611fa38339815191528060205260405f209160018060a01b031691825f5260205260ff60405f2054165f14611df557825f5260205260405f20815f5260205260405f2060ff19815416905533917ff6391f5c32d9c69d2a47ea670b442974b53935d1edc7fd64eb21e047a839171b5f80a4600190565b60ff7ff0c57e16840df040f15088dc2f81fe391c3923bec73e23a9662efc9c229c6a005460401c1615611f2d57565b604051631afcd79f60e31b8152600490fd5b90611f665750805115611f5457602081519101fd5b60405163d6bda27560e01b8152600490fd5b81511580611f99575b611f77575090565b604051639996b31560e01b81526001600160a01b039091166004820152602490fd5b50803b15611f6f56fe02dd7bc7dec4dceedda775e58dd541e08a116c6c53815c0bd028192f7b626800a26469706673582212209a959e73fd3a5e87afff7b1724950731730db70966724b767c3bfe47b4b9a84364736f6c63430008180033","linkReferences":{}},"methodIdentifiers":{"ADMIN_ROLE()":"75b238fc","DEFAULT_ADMIN_ROLE()":"a217fddf","INSURANCE_ROLE()":"b752a74b","UPGRADE_INTERFACE_VERSION()":"ad3cb1cc","cancelPolicy(uint256)":"b20e8bcc","createPolicy(address,string,string,uint256,string,string,uint256,uint256,uint256,bool)":"b42b0be8","flightPolicies(string,uint256)":"2f85b866","getActivePoliciesCount()":"c3d91c82","getFlightPolicies(string)":"88fe7371","getPoliciesByStatus(uint8)":"6c73d599","getPolicy(uint256)":"2b07fce3","getRoleAdmin(bytes32)":"248a9ca3","getUserPolicies(address)":"19ac4614","grantRole(bytes32,address)":"2f2ff15d","hasRole(bytes32,address)":"91d14854","initialize()":"8129fc1c","nextPolicyId()":"cad0b8db","policies(uint256)":"d3e89483","policyExists(uint256)":"0fe92cae","proxiableUUID()":"52d1902d","renounceRole(bytes32,address)":"36568abe","revokeRole(bytes32,address)":"d547741f","supportsInterface(bytes4)":"01ffc9a7","totalPolicies()":"f059d78e","updatePolicyStatus(uint256,uint8)":"b963a5d1","upgradeToAndCall(address,bytes)":"4f1ef286","userPolicies(address,uint256)":"3d36adc5"},"id":39}