{"abi":[{"type":"constructor","inputs":[{"name":"trustedForwarder","type":"address","internalType":"address"}],"stateMutability":"nonpayable"},{"type":"function","name":"ADMIN_ROLE","inputs":[],"outputs":[{"name":"","type":"bytes32","internalType":"bytes32"}],"stateMutability":"view"},{"type":"function","name":"BASIS_POINTS","inputs":[],"outputs":[{"name":"","type":"uint256","internalType":"uint256"}],"stateMutability":"view"},{"type":"function","name":"DEFAULT_ADMIN_ROLE","inputs":[],"outputs":[{"name":"","type":"bytes32","internalType":"bytes32"}],"stateMutability":"view"},{"type":"function","name":"ORACLE_ROLE","inputs":[],"outputs":[{"name":"","type":"bytes32","internalType":"bytes32"}],"stateMutability":"view"},{"type":"function","name":"UPGRADE_INTERFACE_VERSION","inputs":[],"outputs":[{"name":"","type":"string","internalType":"string"}],"stateMutability":"view"},{"type":"function","name":"VAULT_ROLE","inputs":[],"outputs":[{"name":"","type":"bytes32","internalType":"bytes32"}],"stateMutability":"view"},{"type":"function","name":"feeRecipient","inputs":[],"outputs":[{"name":"","type":"address","internalType":"address"}],"stateMutability":"view"},{"type":"function","name":"getRoleAdmin","inputs":[{"name":"role","type":"bytes32","internalType":"bytes32"}],"outputs":[{"name":"","type":"bytes32","internalType":"bytes32"}],"stateMutability":"view"},{"type":"function","name":"grantRole","inputs":[{"name":"role","type":"bytes32","internalType":"bytes32"},{"name":"account","type":"address","internalType":"address"}],"outputs":[],"stateMutability":"nonpayable"},{"type":"function","name":"hasRole","inputs":[{"name":"role","type":"bytes32","internalType":"bytes32"},{"name":"account","type":"address","internalType":"address"}],"outputs":[{"name":"","type":"bool","internalType":"bool"}],"stateMutability":"view"},{"type":"function","name":"initialize","inputs":[{"name":"_policyRegistry","type":"address","internalType":"address"},{"name":"_premiumVault","type":"address","internalType":"address"},{"name":"_payoutVault","type":"address","internalType":"address"},{"name":"_oracleAdapter","type":"address","internalType":"address"},{"name":"_usdc","type":"address","internalType":"address"},{"name":"_feeRecipient","type":"address","internalType":"address"},{"name":"_platformFeeBps","type":"uint256","internalType":"uint256"}],"outputs":[],"stateMutability":"nonpayable"},{"type":"function","name":"isTrustedForwarder","inputs":[{"name":"forwarder","type":"address","internalType":"address"}],"outputs":[{"name":"","type":"bool","internalType":"bool"}],"stateMutability":"view"},{"type":"function","name":"oracleAdapter","inputs":[],"outputs":[{"name":"","type":"address","internalType":"contract FlightOracleAdapter"}],"stateMutability":"view"},{"type":"function","name":"pause","inputs":[],"outputs":[],"stateMutability":"nonpayable"},{"type":"function","name":"paused","inputs":[],"outputs":[{"name":"","type":"bool","internalType":"bool"}],"stateMutability":"view"},{"type":"function","name":"payoutVault","inputs":[],"outputs":[{"name":"","type":"address","internalType":"contract PayoutVault"}],"stateMutability":"view"},{"type":"function","name":"platformFeeBps","inputs":[],"outputs":[{"name":"","type":"uint256","internalType":"uint256"}],"stateMutability":"view"},{"type":"function","name":"policyRegistry","inputs":[],"outputs":[{"name":"","type":"address","internalType":"contract PolicyRegistry"}],"stateMutability":"view"},{"type":"function","name":"premiumVault","inputs":[],"outputs":[{"name":"","type":"address","internalType":"contract PremiumVault"}],"stateMutability":"view"},{"type":"function","name":"proxiableUUID","inputs":[],"outputs":[{"name":"","type":"bytes32","internalType":"bytes32"}],"stateMutability":"view"},{"type":"function","name":"purchasePolicy","inputs":[{"name":"params","type":"tuple","internalType":"struct FlightInsurance.PolicyParams","components":[{"name":"flightNumber","type":"string","internalType":"string"},{"name":"airline","type":"string","internalType":"string"},{"name":"departureTime","type":"uint256","internalType":"uint256"},{"name":"departureAirport","type":"string","internalType":"string"},{"name":"arrivalAirport","type":"string","internalType":"string"},{"name":"premiumAmount","type":"uint256","internalType":"uint256"},{"name":"payoutAmount","type":"uint256","internalType":"uint256"},{"name":"delayThresholdMinutes","type":"uint256","internalType":"uint256"},{"name":"coversCancellation","type":"bool","internalType":"bool"}]}],"outputs":[],"stateMutability":"nonpayable"},{"type":"function","name":"renounceRole","inputs":[{"name":"role","type":"bytes32","internalType":"bytes32"},{"name":"callerConfirmation","type":"address","internalType":"address"}],"outputs":[],"stateMutability":"nonpayable"},{"type":"function","name":"resolvePolicy","inputs":[{"name":"policyId","type":"uint256","internalType":"uint256"},{"name":"flightStatus","type":"tuple","internalType":"struct FlightOracleAdapter.FlightStatus","components":[{"name":"flightNumber","type":"string","internalType":"string"},{"name":"airline","type":"string","internalType":"string"},{"name":"scheduledDeparture","type":"uint256","internalType":"uint256"},{"name":"actualDeparture","type":"uint256","internalType":"uint256"},{"name":"scheduledArrival","type":"uint256","internalType":"uint256"},{"name":"actualArrival","type":"uint256","internalType":"uint256"},{"name":"isCancelled","type":"bool","internalType":"bool"},{"name":"isDelayed","type":"bool","internalType":"bool"},{"name":"delayMinutes","type":"uint256","internalType":"uint256"},{"name":"status","type":"string","internalType":"string"},{"name":"timestamp","type":"uint256","internalType":"uint256"},{"name":"departureAirport","type":"string","internalType":"string"},{"name":"arrivalAirport","type":"string","internalType":"string"}]}],"outputs":[],"stateMutability":"nonpayable"},{"type":"function","name":"revokeRole","inputs":[{"name":"role","type":"bytes32","internalType":"bytes32"},{"name":"account","type":"address","internalType":"address"}],"outputs":[],"stateMutability":"nonpayable"},{"type":"function","name":"setFeeRecipient","inputs":[{"name":"_feeRecipient","type":"address","internalType":"address"}],"outputs":[],"stateMutability":"nonpayable"},{"type":"function","name":"setPlatformFee","inputs":[{"name":"_platformFeeBps","type":"uint256","internalType":"uint256"}],"outputs":[],"stateMutability":"nonpayable"},{"type":"function","name":"supportsInterface","inputs":[{"name":"interfaceId","type":"bytes4","internalType":"bytes4"}],"outputs":[{"name":"","type":"bool","internalType":"bool"}],"stateMutability":"view"},{"type":"function","name":"trustedForwarder","inputs":[],"outputs":[{"name":"","type":"address","internalType":"address"}],"stateMutability":"view"},{"type":"function","name":"unpause","inputs":[],"outputs":[],"stateMutability":"nonpayable"},{"type":"function","name":"upgradeToAndCall","inputs":[{"name":"newImplementation","type":"address","internalType":"address"},{"name":"data","type":"bytes","internalType":"bytes"}],"outputs":[],"stateMutability":"payable"},{"type":"function","name":"usdc","inputs":[],"outputs":[{"name":"","type":"address","internalType":"contract IERC20"}],"stateMutability":"view"},{"type":"event","name":"FeeRecipientUpdated","inputs":[{"name":"newRecipient","type":"address","indexed":false,"internalType":"address"}],"anonymous":false},{"type":"event","name":"Initialized","inputs":[{"name":"version","type":"uint64","indexed":false,"internalType":"uint64"}],"anonymous":false},{"type":"event","name":"Paused","inputs":[{"name":"account","type":"address","indexed":false,"internalType":"address"}],"anonymous":false},{"type":"event","name":"PlatformFeeUpdated","inputs":[{"name":"newFeeBps","type":"uint256","indexed":false,"internalType":"uint256"}],"anonymous":false},{"type":"event","name":"PolicyPurchased","inputs":[{"name":"policyId","type":"uint256","indexed":true,"internalType":"uint256"},{"name":"policyholder","type":"address","indexed":true,"internalType":"address"},{"name":"flightNumber","type":"string","indexed":false,"internalType":"string"},{"name":"premiumAmount","type":"uint256","indexed":false,"internalType":"uint256"},{"name":"payoutAmount","type":"uint256","indexed":false,"internalType":"uint256"}],"anonymous":false},{"type":"event","name":"PolicyResolved","inputs":[{"name":"policyId","type":"uint256","indexed":true,"internalType":"uint256"},{"name":"triggered","type":"bool","indexed":false,"internalType":"bool"},{"name":"payoutAmount","type":"uint256","indexed":false,"internalType":"uint256"}],"anonymous":false},{"type":"event","name":"RoleAdminChanged","inputs":[{"name":"role","type":"bytes32","indexed":true,"internalType":"bytes32"},{"name":"previousAdminRole","type":"bytes32","indexed":true,"internalType":"bytes32"},{"name":"newAdminRole","type":"bytes32","indexed":true,"internalType":"bytes32"}],"anonymous":false},{"type":"event","name":"RoleGranted","inputs":[{"name":"role","type":"bytes32","indexed":true,"internalType":"bytes32"},{"name":"account","type":"address","indexed":true,"internalType":"address"},{"name":"sender","type":"address","indexed":true,"internalType":"address"}],"anonymous":false},{"type":"event","name":"RoleRevoked","inputs":[{"name":"role","type":"bytes32","indexed":true,"internalType":"bytes32"},{"name":"account","type":"address","indexed":true,"internalType":"address"},{"name":"sender","type":"address","indexed":true,"internalType":"address"}],"anonymous":false},{"type":"event","name":"Unpaused","inputs":[{"name":"account","type":"address","indexed":false,"internalType":"address"}],"anonymous":false},{"type":"event","name":"Upgraded","inputs":[{"name":"implementation","type":"address","indexed":true,"internalType":"address"}],"anonymous":false},{"type":"error","name":"AccessControlBadConfirmation","inputs":[]},{"type":"error","name":"AccessControlUnauthorizedAccount","inputs":[{"name":"account","type":"address","internalType":"address"},{"name":"neededRole","type":"bytes32","internalType":"bytes32"}]},{"type":"error","name":"AddressEmptyCode","inputs":[{"name":"target","type":"address","internalType":"address"}]},{"type":"error","name":"ERC1967InvalidImplementation","inputs":[{"name":"implementation","type":"address","internalType":"address"}]},{"type":"error","name":"ERC1967NonPayable","inputs":[]},{"type":"error","name":"EnforcedPause","inputs":[]},{"type":"error","name":"ExpectedPause","inputs":[]},{"type":"error","name":"FailedCall","inputs":[]},{"type":"error","name":"InvalidInitialization","inputs":[]},{"type":"error","name":"NotInitializing","inputs":[]},{"type":"error","name":"UUPSUnauthorizedCallContext","inputs":[]},{"type":"error","name":"UUPSUnsupportedProxiableUUID","inputs":[{"name":"slot","type":"bytes32","internalType":"bytes32"}]}],"bytecode":{"object":"0x60c03462000128576001600160401b0390601f620022b838819003918201601f1916830191848311848410176200012c578084926020946040528339810103126200012857516001600160a01b038116810362000128573060805260a0527ff0c57e16840df040f15088dc2f81fe391c3923bec73e23a9662efc9c229c6a009081549060ff8260401c1662000116578080831603620000d0575b604051612177908162000141823960805181818161135f0152611440015260a0518181816112620152818161131901526120700152f35b6001600160401b031990911681179091556040519081527fc7f505b2f371ae2175ee4913f4499e1f2633a7b5936321eed1cdaeb6115181d290602090a15f808062000099565b60405163f92ee8a960e01b8152600490fd5b5f80fd5b634e487b7160e01b5f52604160045260245ffdfe6080806040526004361015610012575f80fd5b5f905f3560e01c90816301ffc9a714611aed5750806307e2cea514611ab357806312e8e2c314611a205780631460e390146118465780631c4dd7d01461181f57806322dcd13e14611802578063248a9ca3146117c95780632f2ff15d14611780578063347c29731461175857806336568abe146117075780633d9f3163146116df5780633e413bee146116b75780633f4ba83a14611643578063469048401461161b5780634f1ef286146113f15780634f649a29146113c957806352d1902d1461134d578063572b6c05146112f95780635c975abb146112cb57806375b238fc146112915780637da0a8771461124d5780638456cb59146111d657806391d148541461118157806398c4f1ac14611147578063a217fddf1461112d578063ad3cb1cc146110d2578063d547741f14611087578063e1f1c4a71461106b578063e74b981b14610fb8578063ea8a7f5614610a5e5763ede7aa8214610173575f80fd5b3461069c57604036600319011261069c576001600160401b036024351161069c576101a06024353603600319011261069c576040516101a081018181106001600160401b0382111761067d57604052602435600401356001600160401b03811161069c576101e990600436916024350101611c24565b81526024803501356001600160401b03811161069c5761021190600436916024350101611c24565b602082015260243560448101356040830152606481013560608301526084810135608083015260a481013560a083015261024d9060c401611c42565b60c082015261026060e460243501611c42565b60e082015260243561010481013561010083015261012401356001600160401b03811161069c5761029990600436916024350101611c24565b61012082015260243561014481013561014083015261016401356001600160401b03811161069c576102d390600436916024350101611c24565b61016082015261018460243501356001600160401b03811161069c5761030190600436916024350101611c24565b61018082015261030f612045565b6001600160a01b03165f8181527f0b45fb0a7d123af421db170fce034e3ce3a70e5f1150428004face1400c458f2602052604090205460ff1615610a205750610356611fda565b5f546040516307f4965760e11b815260048035908201526001600160a01b039091169190602081602481865afa908115610691575f916109e6575b50156109a9575f60249260405193848092632b07fce360e01b825260043560048301525afa918215610691575f92610805575b5061016082015160048110156107f1576107b85760206105b79160018060a01b036003541660405180809581946337f276ff60e01b8352604060048401528851604484015260018060a01b03878a015116606484015261048b61043860408b01516101c06084870152610204860190611bff565b61047561045760608d01519260431993848983030160a48a0152611bff565b60808d015160c488015260a08d0151838883030160e4890152611bff565b9060c08c01519086830301610104870152611bff565b60e08a01516101248501526101008a01516101448501526101208a01516101648501526101408a015115156101848501526104d06101608b01516101a4860190611c9e565b6101808a01516101c48501526101a08a01516101e48501526003198482030160248501526101806105a561058561052561051586516101a087526101a0870190611bff565b8c8701518682038e880152611bff565b60408601516040860152606086015160608601526080860151608086015260a086015160a086015260c0860151151560c086015260e0860151151560e0860152610100860151610100860152610120860151858203610120870152611bff565b610140850151610140850152610160850151848203610160860152611bff565b92015190610180818403910152611bff565b03915afa908115610691575f9161077e575b5080915f916106a7575b505f546001600160a01b031682156106a05760015b813b1561069c5761061b60445f9283604051958694859363b963a5d160e01b855260043560048601526024850190611c9e565b5af1801561069157610661575b50604051911515825260208201527f48e62d7f748e820c94c53af8b2be5bf37512b3bf8a8f3968026cd83c3889e525604060043592a280f35b9092506001600160401b03811161067d576040525f915f610628565b634e487b7160e01b5f52604160045260245ffd5b6040513d5f823e3d90fd5b5f80fd5b60026105e8565b6101008101516002546020928301516040516302ccb1b360e41b81526001600160a01b03918216600482015260248101849052929450919291839160449183915f91165af1908115610691575f91610744575b5015610706575f6105d3565b60405162461bcd60e51b815260206004820152601660248201527514185e5bdd5d081d1c985b9cd9995c8819985a5b195960521b6044820152606490fd5b90506020813d602011610776575b8161075f60209383611b6c565b8101031261069c5761077090611c4f565b5f6106fa565b3d9150610752565b90506020813d6020116107b0575b8161079960209383611b6c565b8101031261069c576107aa90611c4f565b5f6105c9565b3d915061078c565b60405162461bcd60e51b8152602060048201526011602482015270506f6c696379206e6f742061637469766560781b6044820152606490fd5b634e487b7160e01b5f52602160045260245ffd5b9091503d90815f823e6108188282611b6c565b602081838101031261069c5780516001600160401b03811161069c576101c09283828401828501031261069c576040519384818101106001600160401b03828701111761067d57840160405282820180518552602001516001600160a01b038116810361069c576020850152604082840101516001600160401b03811161069c576108aa908285019084860101611c5c565b6040850152606082840101516001600160401b03811161069c576108d5908285019084860101611c5c565b60608501528282016080818101519086015260a001516001600160401b03811161069c5761090a908285019084860101611c5c565b60a085015260c082840101516001600160401b03811161069c576109349184019083850101611c5c565b60c084015281810160e08181015190850152610100808201519085015261012080820151908501526109699061014001611c4f565b610140840152610160818301015191600483101561069c576101a09261016085015261018082820101516101808501520101516101a0820152905f6103c4565b60405162461bcd60e51b8152602060048201526015602482015274141bdb1a58de48191bd95cc81b9bdd08195e1a5cdd605a1b6044820152606490fd5b90506020813d602011610a18575b81610a0160209383611b6c565b8101031261069c57610a1290611c4f565b5f610391565b3d91506109f4565b6044906040519063e2517d3f60e01b825260048201527f68e79a7bf1e0bc45d0a330c573bc367f9cf464fd326078812f301165fbda4ef16024820152fd5b3461069c57602036600319011261069c576001600160401b0360043581811161069c576101209182600319833603011261069c576040519283018381108282111761067d57604052816004013581811161069c57610ac29060043691850101611c24565b8352602482013581811161069c57610ae09060043691850101611c24565b602084015260448201356040840152606482013581811161069c57610b0b9060043691850101611c24565b6060840152608482013590811161069c57610b5c91610b336101049260043691840101611c24565b608085015260a481013560a085015260c481013560c085015260e481013560e085015201611c42565b610100820152610b6a611fda565b60a081015115610f735760c081015115610f2e576040810151421015610edd5760a081015160055490818102918183041490151715610ec95760a082015190816127108204810311610ec9576004805460015460a08601516040516323b872dd60e01b815233948101949094526001600160a01b0391821660248501526044840152602091839160649183915f91165af1908115610691575f91610e8f575b5015610e53576127108104610d86575b600160a01b600190035f541690835160208501519160408601519460608701519060808801519060c08901519060e08a0151926101008b01511515946040519a8b998a99631685617d60e31b8b523360048c015260248b0161014090526101448b01610c8491611bff565b8a81036003190160448c0152610c9991611bff565b9060648a01526003198982030160848a0152610cb491611bff565b8781036003190160a4890152610cc991611bff565b946127109004900360c486015260e485015261010484015261012483015203815a6020945f91f1908115610691575f91610d54575b507fe386be01d60176cc7a8d04464856d4c7d46385a7cbd6173cd5263d1f80c58255825160c060a0850151940151610d4160405192606084526060840190611bff565b94602083015260408201528033940390a3005b90506020813d602011610d7e575b81610d6f60209383611b6c565b8101031261069c575182610cfe565b3d9150610d62565b600480546006546040516323b872dd60e01b815233938101939093526001600160a01b03908116602484015261271084046044840152602091839160649183915f91165af1908115610691575f91610e19575b50610c195760405162461bcd60e51b8152602060048201526013602482015272119959481d1c985b9cd9995c8819985a5b1959606a1b6044820152606490fd5b90506020813d602011610e4b575b81610e3460209383611b6c565b8101031261069c57610e4590611c4f565b84610dd9565b3d9150610e27565b60405162461bcd60e51b81526020600482015260146024820152731554d110c81d1c985b9cd9995c8819985a5b195960621b6044820152606490fd5b90506020813d602011610ec1575b81610eaa60209383611b6c565b8101031261069c57610ebb90611c4f565b84610c09565b3d9150610e9d565b634e487b7160e01b5f52601160045260245ffd5b60405162461bcd60e51b8152602060048201526024808201527f4465706172747572652074696d65206d75737420626520696e207468652066756044820152637475726560e01b6064820152608490fd5b60405162461bcd60e51b815260206004820152601d60248201527f5061796f7574206d7573742062652067726561746572207468616e20300000006044820152606490fd5b60405162461bcd60e51b815260206004820152601e60248201527f5072656d69756d206d7573742062652067726561746572207468616e203000006044820152606490fd5b3461069c57602036600319011261069c57610fd1611b40565b610fd9611cab565b6001600160a01b0316801561102e576020817f7a7b5a0a132f9e0581eb8527f66eae9ee89c2a3e79d4ac7e41a1f1f4d48a7fc2926bffffffffffffffffffffffff60a01b6006541617600655604051908152a1005b60405162461bcd60e51b8152602060048201526015602482015274125b9d985b1a5908199959481c9958da5c1a595b9d605a1b6044820152606490fd5b3461069c575f36600319011261069c5760206040516127108152f35b3461069c57604036600319011261069c576110d06004356110a6611b56565b90805f525f805160206121028339815191526020526110cb600160405f200154611d35565b611f4f565b005b3461069c575f36600319011261069c5760405160408101908082106001600160401b0383111761067d576111299160405260058152640352e302e360dc1b6020820152604051918291602083526020830190611bff565b0390f35b3461069c575f36600319011261069c5760206040515f8152f35b3461069c575f36600319011261069c5760206040517f31e0210044b4f6757ce6aa31f9c6e8d4896d24a755014887391a926c5224d9598152f35b3461069c57604036600319011261069c5761119a611b56565b6004355f525f8051602061210283398151915260205260405f209060018060a01b03165f52602052602060ff60405f2054166040519015158152f35b3461069c575f36600319011261069c576111ee611cab565b6111f6611fda565b5f80516020612122833981519152805460ff191660011790557f62e78cea01bee320cd4e420270b5ea74000d11b0c9f74754ebdbfc544b05a258602061123a612045565b6040516001600160a01b039091168152a1005b3461069c575f36600319011261069c576040517f00000000000000000000000000000000000000000000000000000000000000006001600160a01b03168152602090f35b3461069c575f36600319011261069c5760206040517fa49807205ce4d355092ef5a8a18f56e8913cf4a201fbe287825b095693c217758152f35b3461069c575f36600319011261069c57602060ff5f8051602061212283398151915254166040519015158152f35b3461069c57602036600319011261069c576020611314611b40565b6040517f00000000000000000000000000000000000000000000000000000000000000006001600160a01b039081169216919091148152f35b3461069c575f36600319011261069c577f00000000000000000000000000000000000000000000000000000000000000006001600160a01b031630036113b75760206040517f360894a13ba1a3210667c828492db98dca3e2076cc3735a920a3ca505d382bbc8152f35b60405163703e46dd60e11b8152600490fd5b3461069c575f36600319011261069c576002546040516001600160a01b039091168152602090f35b604036600319011261069c57611405611b40565b6024356001600160401b03811161069c573660238201121561069c57611435903690602481600401359101611ba8565b906001600160a01b037f000000000000000000000000000000000000000000000000000000000000000081163081149081156115ed575b506113b757611479611cab565b6040516352d1902d60e01b8152908216916020918281600481875afa5f91816115be575b506114bb57604051634c9c8ce360e01b815260048101859052602490fd5b9284937f360894a13ba1a3210667c828492db98dca3e2076cc3735a920a3ca505d382bbc908181036115a65750823b1561158d5780546001600160a01b03191682179055604051907fbc7cd75a20ee27fd9adebab32041f755214dbc6bffa90cc0225b39da2e5c2d3b5f80a283511561157357505f8084846110d096519101845af4903d1561156a573d61154e81611b8d565b9061155c6040519283611b6c565b81525f81943d92013e61209e565b6060925061209e565b925050503461157e57005b63b398979f60e01b8152600490fd5b604051634c9c8ce360e01b815260048101839052602490fd5b60249060405190632a87526960e21b82526004820152fd5b9091508381813d83116115e6575b6115d68183611b6c565b8101031261069c5751908661149d565b503d6115cc565b9050817f360894a13ba1a3210667c828492db98dca3e2076cc3735a920a3ca505d382bbc541614158461146c565b3461069c575f36600319011261069c576006546040516001600160a01b039091168152602090f35b3461069c575f36600319011261069c5761165b611cab565b5f80516020612122833981519152805460ff8116156116a55760ff191690557f5db9ee0a495bf2e6ff9c91a7834c1ba4fdd244a5e8aa4e537bd38aeae4b073aa602061123a612045565b604051638dfc202b60e01b8152600490fd5b3461069c575f36600319011261069c576004546040516001600160a01b039091168152602090f35b3461069c575f36600319011261069c576003546040516001600160a01b039091168152602090f35b3461069c57604036600319011261069c57611720611b56565b6001600160a01b0380611731612045565b1690821603611746576110d090600435611f4f565b60405163334bd91960e11b8152600490fd5b3461069c575f36600319011261069c576001546040516001600160a01b039091168152602090f35b3461069c57604036600319011261069c576110d060043561179f611b56565b90805f525f805160206121028339815191526020526117c4600160405f200154611d35565b611eed565b3461069c57602036600319011261069c576004355f525f805160206121028339815191526020526020600160405f200154604051908152f35b3461069c575f36600319011261069c576020600554604051908152f35b3461069c575f36600319011261069c575f546040516001600160a01b039091168152602090f35b3461069c5760e036600319011261069c5761185f611b40565b611867611b56565b6001600160a01b0391604435838116919082900361069c5760643584811680910361069c576084359085821680920361069c5760a4359386851680950361069c577ff0c57e16840df040f15088dc2f81fe391c3923bec73e23a9662efc9c229c6a009687549660ff8860401c1615976001600160401b03811680159081611a18575b6001149081611a0e575b159081611a05575b506119f35767ffffffffffffffff1981166001178a55886119d4575b50611920612004565b611928612004565b611930612004565b816bffffffffffffffffffffffff60a01b9616865f5416175f5516846001541617600155836002541617600255826003541617600355816004541617600455600654161760065560c43560055561198633611d77565b5061199033611e22565b5061199757005b68ff00000000000000001981541690557fc7f505b2f371ae2175ee4913f4499e1f2633a7b5936321eed1cdaeb6115181d2602060405160018152a1005b68ffffffffffffffffff19166801000000000000000117895589611917565b60405163f92ee8a960e01b8152600490fd5b9050158b6118fb565b303b1591506118f3565b8a91506118e9565b3461069c57602036600319011261069c57600435611a3c611cab565b6103e88111611a76576020817f45610d581145924dd7090a5017e5f2b1d6f42213bb2e95707ff86846bbfcb1ca92600555604051908152a1005b60405162461bcd60e51b81526020600482015260156024820152744665652063616e6e6f74206578636565642031302560581b6044820152606490fd5b3461069c575f36600319011261069c5760206040517f68e79a7bf1e0bc45d0a330c573bc367f9cf464fd326078812f301165fbda4ef18152f35b3461069c57602036600319011261069c576004359063ffffffff60e01b821680920361069c57602091637965db0b60e01b8114908115611b2f575b5015158152f35b6301ffc9a760e01b14905083611b28565b600435906001600160a01b038216820361069c57565b602435906001600160a01b038216820361069c57565b90601f801991011681019081106001600160401b0382111761067d57604052565b6001600160401b03811161067d57601f01601f191660200190565b929192611bb482611b8d565b91611bc26040519384611b6c565b82948184528183011161069c578281602093845f960137010152565b5f5b838110611bef5750505f910152565b8181015183820152602001611be0565b90602091611c1881518092818552858086019101611bde565b601f01601f1916010190565b9080601f8301121561069c57816020611c3f93359101611ba8565b90565b3590811515820361069c57565b5190811515820361069c57565b81601f8201121561069c578051611c7281611b8d565b92611c806040519485611b6c565b8184526020828401011161069c57611c3f9160208085019101611bde565b9060048210156107f15752565b611cb3612045565b6001600160a01b03165f8181527fb16e88c42fd4e48df2dd6a2eabd6bc9aec654ec170056b470819f8892cc6431c60205260409020547fa49807205ce4d355092ef5a8a18f56e8913cf4a201fbe287825b095693c217759060ff1615611d17575050565b604492506040519163e2517d3f60e01b835260048301526024820152fd5b611d3d612045565b90805f525f8051602061210283398151915260205260405f209160018060a01b031691825f5260205260ff60405f20541615611d17575050565b6001600160a01b039081165f8181527fb7db2dd08fcb62d0c9e08c51941cae53c267786a0b75803fb7960902fc8ef97d60205260409020549091905f805160206121028339815191529060ff16611e1b575f805260205260405f20825f5260205260405f20600160ff19825416179055611def612045565b16905f7f2f8788117e7eff1d82e926ec794901d17c78024a50270940304540a733656f0d8180a4600190565b5050505f90565b6001600160a01b039081165f8181527fb16e88c42fd4e48df2dd6a2eabd6bc9aec654ec170056b470819f8892cc6431c60205260409020547fa49807205ce4d355092ef5a8a18f56e8913cf4a201fbe287825b095693c2177592905f805160206121028339815191529060ff16611ee557835f5260205260405f20825f5260205260405f20600160ff19825416179055611eba612045565b16917f2f8788117e7eff1d82e926ec794901d17c78024a50270940304540a733656f0d5f80a4600190565b505050505f90565b5f8181525f80516020612102833981519152602081815260408084206001600160a01b039687168086529252909220549293919260ff16611ee557835f5260205260405f20825f5260205260405f20600160ff19825416179055611eba612045565b5f8181525f80516020612102833981519152602081815260408084206001600160a01b039687168086529252909220549293919260ff1615611ee557835f5260205260405f20825f5260205260405f2060ff198154169055611faf612045565b16917ff6391f5c32d9c69d2a47ea670b442974b53935d1edc7fd64eb21e047a839171b5f80a4600190565b60ff5f805160206121228339815191525416611ff257565b60405163d93c066560e01b8152600490fd5b60ff7ff0c57e16840df040f15088dc2f81fe391c3923bec73e23a9662efc9c229c6a005460401c161561203357565b604051631afcd79f60e31b8152600490fd5b60143610158061206c575b1561206857601319360136811161069c573560601c90565b3390565b50337f00000000000000000000000000000000000000000000000000000000000000006001600160a01b031614612050565b906120c557508051156120b357602081519101fd5b60405163d6bda27560e01b8152600490fd5b815115806120f8575b6120d6575090565b604051639996b31560e01b81526001600160a01b039091166004820152602490fd5b50803b156120ce56fe02dd7bc7dec4dceedda775e58dd541e08a116c6c53815c0bd028192f7b626800cd5ed15c6e187e77e9aee88184c21f4f2182ab5827cb3b7e07fbedcd63f03300a2646970667358221220fac140657429f4273a072eefc5fb7a64cf5249537f6e19969a4ea40bfc6d83f364736f6c63430008180033","linkReferences":{}},"methodIdentifiers":{"ADMIN_ROLE()":"75b238fc","BASIS_POINTS()":"e1f1c4a7","DEFAULT_ADMIN_ROLE()":"a217fddf","ORACLE_ROLE()":"07e2cea5","UPGRADE_INTERFACE_VERSION()":"ad3cb1cc","VAULT_ROLE()":"98c4f1ac","feeRecipient()":"46904840","getRoleAdmin(bytes32)":"248a9ca3","grantRole(bytes32,address)":"2f2ff15d","hasRole(bytes32,address)":"91d14854","initialize(address,address,address,address,address,address,uint256)":"1460e390","isTrustedForwarder(address)":"572b6c05","oracleAdapter()":"3d9f3163","pause()":"8456cb59","paused()":"5c975abb","payoutVault()":"4f649a29","platformFeeBps()":"22dcd13e","policyRegistry()":"1c4dd7d0","premiumVault()":"347c2973","proxiableUUID()":"52d1902d","purchasePolicy((string,string,uint256,string,string,uint256,uint256,uint256,bool))":"ea8a7f56","renounceRole(bytes32,address)":"36568abe","resolvePolicy(uint256,(string,string,uint256,uint256,uint256,uint256,bool,bool,uint256,string,uint256,string,string))":"ede7aa82","revokeRole(bytes32,address)":"d547741f","setFeeRecipient(address)":"e74b981b","setPlatformFee(uint256)":"12e8e2c3","supportsInterface(bytes4)":"01ffc9a7","trustedForwarder()":"7da0a877","unpause()":"3f4ba83a","upgradeToAndCall(address,bytes)":"4f1ef286","usdc()":"3e413bee"},"id":36}