{"abi":[{"type":"constructor","inputs":[],"stateMutability":"nonpayable"},{"type":"function","name":"ADMIN_ROLE","inputs":[],"outputs":[{"name":"","type":"bytes32","internalType":"bytes32"}],"stateMutability":"view"},{"type":"function","name":"BASIS_POINTS","inputs":[],"outputs":[{"name":"","type":"uint256","internalType":"uint256"}],"stateMutability":"view"},{"type":"function","name":"DEFAULT_ADMIN_ROLE","inputs":[],"outputs":[{"name":"","type":"bytes32","internalType":"bytes32"}],"stateMutability":"view"},{"type":"function","name":"INSURANCE_ROLE","inputs":[],"outputs":[{"name":"","type":"bytes32","internalType":"bytes32"}],"stateMutability":"view"},{"type":"function","name":"UPGRADE_INTERFACE_VERSION","inputs":[],"outputs":[{"name":"","type":"string","internalType":"string"}],"stateMutability":"view"},{"type":"function","name":"VAULT_ROLE","inputs":[],"outputs":[{"name":"","type":"bytes32","internalType":"bytes32"}],"stateMutability":"view"},{"type":"function","name":"emergencyWithdraw","inputs":[{"name":"to","type":"address","internalType":"address"},{"name":"amount","type":"uint256","internalType":"uint256"}],"outputs":[],"stateMutability":"nonpayable"},{"type":"function","name":"getAvailablePayoutAmount","inputs":[],"outputs":[{"name":"","type":"uint256","internalType":"uint256"}],"stateMutability":"view"},{"type":"function","name":"getBalance","inputs":[],"outputs":[{"name":"","type":"uint256","internalType":"uint256"}],"stateMutability":"view"},{"type":"function","name":"getRoleAdmin","inputs":[{"name":"role","type":"bytes32","internalType":"bytes32"}],"outputs":[{"name":"","type":"bytes32","internalType":"bytes32"}],"stateMutability":"view"},{"type":"function","name":"grantRole","inputs":[{"name":"role","type":"bytes32","internalType":"bytes32"},{"name":"account","type":"address","internalType":"address"}],"outputs":[],"stateMutability":"nonpayable"},{"type":"function","name":"hasRole","inputs":[{"name":"role","type":"bytes32","internalType":"bytes32"},{"name":"account","type":"address","internalType":"address"}],"outputs":[{"name":"","type":"bool","internalType":"bool"}],"stateMutability":"view"},{"type":"function","name":"initialize","inputs":[{"name":"_usdc","type":"address","internalType":"address"},{"name":"_insuranceContract","type":"address","internalType":"address"},{"name":"_reserveRatioBps","type":"uint256","internalType":"uint256"}],"outputs":[],"stateMutability":"nonpayable"},{"type":"function","name":"insuranceContract","inputs":[],"outputs":[{"name":"","type":"address","internalType":"address"}],"stateMutability":"view"},{"type":"function","name":"pause","inputs":[],"outputs":[],"stateMutability":"nonpayable"},{"type":"function","name":"paused","inputs":[],"outputs":[{"name":"","type":"bool","internalType":"bool"}],"stateMutability":"view"},{"type":"function","name":"proxiableUUID","inputs":[],"outputs":[{"name":"","type":"bytes32","internalType":"bytes32"}],"stateMutability":"view"},{"type":"function","name":"receivePremium","inputs":[{"name":"from","type":"address","internalType":"address"},{"name":"amount","type":"uint256","internalType":"uint256"}],"outputs":[],"stateMutability":"nonpayable"},{"type":"function","name":"renounceRole","inputs":[{"name":"role","type":"bytes32","internalType":"bytes32"},{"name":"callerConfirmation","type":"address","internalType":"address"}],"outputs":[],"stateMutability":"nonpayable"},{"type":"function","name":"reserveRatioBps","inputs":[],"outputs":[{"name":"","type":"uint256","internalType":"uint256"}],"stateMutability":"view"},{"type":"function","name":"revokeRole","inputs":[{"name":"role","type":"bytes32","internalType":"bytes32"},{"name":"account","type":"address","internalType":"address"}],"outputs":[],"stateMutability":"nonpayable"},{"type":"function","name":"setInsuranceContract","inputs":[{"name":"_insuranceContract","type":"address","internalType":"address"}],"outputs":[],"stateMutability":"nonpayable"},{"type":"function","name":"setReserveRatio","inputs":[{"name":"_reserveRatioBps","type":"uint256","internalType":"uint256"}],"outputs":[],"stateMutability":"nonpayable"},{"type":"function","name":"supportsInterface","inputs":[{"name":"interfaceId","type":"bytes4","internalType":"bytes4"}],"outputs":[{"name":"","type":"bool","internalType":"bool"}],"stateMutability":"view"},{"type":"function","name":"totalPayouts","inputs":[],"outputs":[{"name":"","type":"uint256","internalType":"uint256"}],"stateMutability":"view"},{"type":"function","name":"totalPremiums","inputs":[],"outputs":[{"name":"","type":"uint256","internalType":"uint256"}],"stateMutability":"view"},{"type":"function","name":"totalReserves","inputs":[],"outputs":[{"name":"","type":"uint256","internalType":"uint256"}],"stateMutability":"view"},{"type":"function","name":"transferTo","inputs":[{"name":"to","type":"address","internalType":"address"},{"name":"amount","type":"uint256","internalType":"uint256"}],"outputs":[{"name":"","type":"bool","internalType":"bool"}],"stateMutability":"nonpayable"},{"type":"function","name":"transferToPayoutVault","inputs":[{"name":"payoutVault","type":"address","internalType":"address"},{"name":"amount","type":"uint256","internalType":"uint256"}],"outputs":[],"stateMutability":"nonpayable"},{"type":"function","name":"unpause","inputs":[],"outputs":[],"stateMutability":"nonpayable"},{"type":"function","name":"upgradeToAndCall","inputs":[{"name":"newImplementation","type":"address","internalType":"address"},{"name":"data","type":"bytes","internalType":"bytes"}],"outputs":[],"stateMutability":"payable"},{"type":"function","name":"usdc","inputs":[],"outputs":[{"name":"","type":"address","internalType":"contract IERC20"}],"stateMutability":"view"},{"type":"event","name":"Initialized","inputs":[{"name":"version","type":"uint64","indexed":false,"internalType":"uint64"}],"anonymous":false},{"type":"event","name":"InsuranceContractUpdated","inputs":[{"name":"newContract","type":"address","indexed":false,"internalType":"address"}],"anonymous":false},{"type":"event","name":"Paused","inputs":[{"name":"account","type":"address","indexed":false,"internalType":"address"}],"anonymous":false},{"type":"event","name":"PayoutTransferred","inputs":[{"name":"to","type":"address","indexed":true,"internalType":"address"},{"name":"amount","type":"uint256","indexed":false,"internalType":"uint256"},{"name":"totalPayouts","type":"uint256","indexed":false,"internalType":"uint256"}],"anonymous":false},{"type":"event","name":"PremiumReceived","inputs":[{"name":"from","type":"address","indexed":true,"internalType":"address"},{"name":"amount","type":"uint256","indexed":false,"internalType":"uint256"},{"name":"totalPremiums","type":"uint256","indexed":false,"internalType":"uint256"}],"anonymous":false},{"type":"event","name":"ReserveAllocated","inputs":[{"name":"amount","type":"uint256","indexed":false,"internalType":"uint256"},{"name":"totalReserves","type":"uint256","indexed":false,"internalType":"uint256"}],"anonymous":false},{"type":"event","name":"ReserveRatioUpdated","inputs":[{"name":"newRatioBps","type":"uint256","indexed":false,"internalType":"uint256"}],"anonymous":false},{"type":"event","name":"RoleAdminChanged","inputs":[{"name":"role","type":"bytes32","indexed":true,"internalType":"bytes32"},{"name":"previousAdminRole","type":"bytes32","indexed":true,"internalType":"bytes32"},{"name":"newAdminRole","type":"bytes32","indexed":true,"internalType":"bytes32"}],"anonymous":false},{"type":"event","name":"RoleGranted","inputs":[{"name":"role","type":"bytes32","indexed":true,"internalType":"bytes32"},{"name":"account","type":"address","indexed":true,"internalType":"address"},{"name":"sender","type":"address","indexed":true,"internalType":"address"}],"anonymous":false},{"type":"event","name":"RoleRevoked","inputs":[{"name":"role","type":"bytes32","indexed":true,"internalType":"bytes32"},{"name":"account","type":"address","indexed":true,"internalType":"address"},{"name":"sender","type":"address","indexed":true,"internalType":"address"}],"anonymous":false},{"type":"event","name":"Unpaused","inputs":[{"name":"account","type":"address","indexed":false,"internalType":"address"}],"anonymous":false},{"type":"event","name":"Upgraded","inputs":[{"name":"implementation","type":"address","indexed":true,"internalType":"address"}],"anonymous":false},{"type":"error","name":"AccessControlBadConfirmation","inputs":[]},{"type":"error","name":"AccessControlUnauthorizedAccount","inputs":[{"name":"account","type":"address","internalType":"address"},{"name":"neededRole","type":"bytes32","internalType":"bytes32"}]},{"type":"error","name":"AddressEmptyCode","inputs":[{"name":"target","type":"address","internalType":"address"}]},{"type":"error","name":"ERC1967InvalidImplementation","inputs":[{"name":"implementation","type":"address","internalType":"address"}]},{"type":"error","name":"ERC1967NonPayable","inputs":[]},{"type":"error","name":"EnforcedPause","inputs":[]},{"type":"error","name":"ExpectedPause","inputs":[]},{"type":"error","name":"FailedCall","inputs":[]},{"type":"error","name":"InvalidInitialization","inputs":[]},{"type":"error","name":"NotInitializing","inputs":[]},{"type":"error","name":"SafeERC20FailedOperation","inputs":[{"name":"token","type":"address","internalType":"address"}]},{"type":"error","name":"UUPSUnauthorizedCallContext","inputs":[]},{"type":"error","name":"UUPSUnsupportedProxiableUUID","inputs":[{"name":"slot","type":"bytes32","internalType":"bytes32"}]}],"bytecode":{"object":"0x60a080604052346100cc57306080527ff0c57e16840df040f15088dc2f81fe391c3923bec73e23a9662efc9c229c6a009081549060ff8260401c166100bd57506001600160401b036002600160401b031982821601610078575b60405161182790816100d182396080518181816109b90152610a970152f35b6001600160401b031990911681179091556040519081527fc7f505b2f371ae2175ee4913f4499e1f2633a7b5936321eed1cdaeb6115181d290602090a15f8080610059565b63f92ee8a960e01b8152600490fd5b5f80fdfe6080604090808252600480361015610015575f80fd5b5f3560e01c91826301ffc9a71461110b5750816312065fe0146110825781631794bb3c14610f04578163248a9ca314610ece5781632ccb1b3014610d975781632f2ff15d14610d6f57816336568abe14610d2b5781633e413bee14610d045781633f4ba83a14610c8f5781634089b17014610c735781634f1ef28614610a1d57816352d1902d146109a65781635bda1584146109885781635c975abb1461095957816365ddc8b71461089457816375b238fc1461085a5781638456cb59146107f55781638b4f3b2c1461075b5781638f840ddd1461073d57816391d14854146106ed57816395ccea671461066a57816398c4f1ac14610630578163a217fddf14610616578163ad3cb1cc14610578578163b752a74b1461053e578163c383d34414610520578163ca2e14461461041b578163d012a5a8146103f3578163d547741f146103ab578163d5a867b71461025a578163df3146011461019f575063e1f1c4a714610180575f80fd5b3461019b575f36600319011261019b57602090516127108152f35b5f80fd5b90503461019b57602036600319011261019b576101ba61115d565b6101c2611524565b6001600160a01b0316908115610217577fab3448b430952ede9b8fd87a21a420d1e899f3855992101a39e53138f1e411c760208385816bffffffffffffffffffffffff60a01b600154161760015551908152a1005b606490602084519162461bcd60e51b8352820152601a60248201527f496e76616c696420696e737572616e636520636f6e74726163740000000000006044820152fd5b823461019b578060031936011261019b5761027361115d565b91602435906102806114ab565b6102886115ad565b81159361029585156111db565b5f5484516323b872dd60e01b60208201526001600160a01b0392831660248201819052306044830152606480830187905282529290911660a0820167ffffffffffffffff8111838210176103985786526102ef91906116e9565b6102fb836002546112aa565b9182600255600554958685029685880414171561038557507f05cb9b56b0930f6c1690751f471f034658da47b8ac12af32e773587c2bf769c1846127107f33cd1e22886d50aaeb4f47cb82d13c4e4fe84a11479241700a16f4bbbc4e135e970494610368866003546112aa565b948560035582519182526020820152a282519182526020820152a1005b601190634e487b7160e01b5f525260245ffd5b604185634e487b7160e01b5f525260245ffd5b823461019b578060031936011261019b576103f191356103ec60016103ce611173565b93835f525f805160206117b28339815191526020525f20015461157f565b611629565b005b823461019b575f36600319011261019b5760015490516001600160a01b039091168152602090f35b90503461019b578160031936011261019b5761043561115d565b60243591610441611524565b6104496115ad565b6104548315156111db565b6001600160a01b03828116156104e6575f5416908451906370a0823160e01b82523090820152602081602481855afa9485156104dd57505f946104a7575b506104a2836103f1951015611267565b6115d7565b93506020843d6020116104d5575b816104c260209383611189565b8101031261019b579251926104a2610492565b3d91506104b5565b513d5f823e3d90fd5b845162461bcd60e51b81526020818401526014602482015273125b9d985b1a59081c185e5bdd5d081d985d5b1d60621b6044820152606490fd5b823461019b575f36600319011261019b576020906005549051908152f35b823461019b575f36600319011261019b57602090517ffec7cd74e5c65b641d49ecc2e89f646c7c0bcae85dc50f9616bf9c798cedda8b8152f35b823461019b575f36600319011261019b578051918183019083821067ffffffffffffffff83111761060357508152600582526020640352e302e360dc1b60208401528151928391602083528151918260208501525f5b8381106105ed5750505f83830185015250601f01601f19168101030190f35b81810183015187820187015286945082016105ce565b604190634e487b7160e01b5f525260245ffd5b823461019b575f36600319011261019b57602090515f8152f35b823461019b575f36600319011261019b57602090517f31e0210044b4f6757ce6aa31f9c6e8d4896d24a755014887391a926c5224d9598152f35b90503461019b578160031936011261019b5761068461115d565b60243591610690611524565b6001600160a01b036106a58382161515611227565b6106b08415156111db565b5f5416908451906370a0823160e01b82523090820152602081602481855afa9485156104dd57505f946104a757506104a2836103f1951015611267565b823461019b578060031936011261019b57602091610709611173565b90355f525f805160206117b28339815191528352815f209060018060a01b03165f52825260ff815f20541690519015158152f35b823461019b575f36600319011261019b576020906003549051908152f35b90503461019b57602036600319011261019b57803590610779611524565b61271082116107b2577f5fc97baab2060bb73299f20ec1d188d8ad3e090e1d7e029e716c34674d87b234602083858160055551908152a1005b606490602084519162461bcd60e51b8352820152602060248201527f5265736572766520726174696f2063616e6e6f742065786365656420313030256044820152fd5b823461019b575f36600319011261019b5760207f62e78cea01bee320cd4e420270b5ea74000d11b0c9f74754ebdbfc544b05a25891610832611524565b61083a6115ad565b5f805160206117d2833981519152805460ff1916600117905551338152a1005b823461019b575f36600319011261019b57602090517fa49807205ce4d355092ef5a8a18f56e8913cf4a201fbe287825b095693c217758152f35b823461019b575f36600319011261019b575f5481516370a0823160e01b8152308482015290602090829060249082906001600160a01b03165afa90811561094f575f9161091d575b50600354808211156109105781039081116108fd5760209250905b51908152f35b601183634e487b7160e01b5f525260245ffd5b5050602091505f906108f7565b90506020813d602011610947575b8161093860209383611189565b8101031261019b5751836108dc565b3d915061092b565b82513d5f823e3d90fd5b823461019b575f36600319011261019b5760209060ff5f805160206117d2833981519152541690519015158152f35b823461019b575f36600319011261019b576020906002549051908152f35b823461019b575f36600319011261019b577f00000000000000000000000000000000000000000000000000000000000000006001600160a01b03163003610a1057602090517f360894a13ba1a3210667c828492db98dca3e2076cc3735a920a3ca505d382bbc8152f35b5163703e46dd60e11b8152fd5b90508160031936011261019b57610a3261115d565b602492833567ffffffffffffffff811161019b573660238201121561019b5780840135610a5e816111bf565b93610a6b84519586611189565b818552602091828601933689838301011161019b57815f928a8693018737870101526001600160a01b037f00000000000000000000000000000000000000000000000000000000000000008116308114908115610c45575b50610c3557610ad0611524565b81169484516352d1902d60e01b8152838189818a5afa5f9181610c06575b50610b095750505050505191634c9c8ce360e01b8352820152fd5b9087878794938b7f360894a13ba1a3210667c828492db98dca3e2076cc3735a920a3ca505d382bbc91828103610bf15750853b15610bdd575080546001600160a01b031916821790558451907fbc7cd75a20ee27fd9adebab32041f755214dbc6bffa90cc0225b39da2e5c2d3b5f80a2825115610bc35750505f6103f19581925190845af4913d15610bb9573d610bab610ba2826111bf565b92519283611189565b81525f81943d92013e61174e565b506060925061174e565b9450945050505034610bd157005b63b398979f60e01b8152fd5b8651634c9c8ce360e01b8152808501849052fd5b8751632a87526960e21b815280860191909152fd5b9091508481813d8311610c2e575b610c1e8183611189565b8101031261019b5751905f610aee565b503d610c14565b845163703e46dd60e11b81528790fd5b9050817f360894a13ba1a3210667c828492db98dca3e2076cc3735a920a3ca505d382bbc541614155f610ac3565b823461019b575f36600319011261019b57602091549051908152f35b823461019b575f36600319011261019b57610ca8611524565b5f805160206117d28339815191529182549060ff821615610cf6577f5db9ee0a495bf2e6ff9c91a7834c1ba4fdd244a5e8aa4e537bd38aeae4b073aa602084868560ff1916905551338152a1005b8251638dfc202b60e01b8152fd5b823461019b575f36600319011261019b575f5490516001600160a01b039091168152602090f35b823461019b578060031936011261019b57610d44611173565b90336001600160a01b03831603610d6057506103f19135611629565b5163334bd91960e11b81529050fd5b823461019b578060031936011261019b576103f19135610d9260016103ce611173565b611428565b823461019b578060031936011261019b57610db061115d565b60243590610dbc6114ab565b610dc46115ad565b610dcf8215156111db565b6001600160a01b038181169290610de7841515611227565b5f5416948451956370a0823160e01b875230828801526020968781602481855afa908115610ec4579087949392915f91610e6f575b507ffa83372a556fb8118adf8bb0e47331253d8356326e6ac5291ffb0e95e186f16a95610e50926104a28680941015611267565b610e5b8282546112aa565b809155825191825286820152a25160018152f35b80969550898092503d8311610ebd575b610e898183611189565b8101031261019b579351929386937ffa83372a556fb8118adf8bb0e47331253d8356326e6ac5291ffb0e95e186f16a610e1c565b503d610e7f565b87513d5f823e3d90fd5b823461019b57602036600319011261019b57602091355f525f805160206117b283398151915282526001815f2001549051908152f35b90503461019b57606036600319011261019b57610f1f61115d565b90610f28611173565b917ff0c57e16840df040f15088dc2f81fe391c3923bec73e23a9662efc9c229c6a0092835460ff81871c16159367ffffffffffffffff82168015908161107a575b6001149081611070575b159081611067575b50611059575067ffffffffffffffff19811660011785558361103a575b50610fa16116a8565b610fa96116a8565b610fb16116a8565b60018060a01b0390816bffffffffffffffffffffffff60a01b9316835f5416175f5516906001541617600155604435600555610fec336112cb565b50610ff633611368565b50610ffd57005b805468ff00000000000000001916905551600181527fc7f505b2f371ae2175ee4913f4499e1f2633a7b5936321eed1cdaeb6115181d290602090a1005b68ffffffffffffffffff1916680100000000000000011784555f610f98565b865163f92ee8a960e01b8152fd5b9050155f610f7b565b303b159150610f73565b869150610f69565b823461019b575f36600319011261019b575f5481516370a0823160e01b81523093810193909352602090839060249082906001600160a01b03165afa9081156104dd575f916110d6575b6020925051908152f35b90506020823d602011611103575b816110f160209383611189565b8101031261019b5760209151906110cc565b3d91506110e4565b903461019b57602036600319011261019b57359063ffffffff60e01b821680920361019b57602091637965db0b60e01b811490811561114c575b5015158152f35b6301ffc9a760e01b14905083611145565b600435906001600160a01b038216820361019b57565b602435906001600160a01b038216820361019b57565b90601f8019910116810190811067ffffffffffffffff8211176111ab57604052565b634e487b7160e01b5f52604160045260245ffd5b67ffffffffffffffff81116111ab57601f01601f191660200190565b156111e257565b60405162461bcd60e51b815260206004820152601d60248201527f416d6f756e74206d7573742062652067726561746572207468616e20300000006044820152606490fd5b1561122e57565b60405162461bcd60e51b8152602060048201526011602482015270125b9d985b1a59081c9958da5c1a595b9d607a1b6044820152606490fd5b1561126e57565b60405162461bcd60e51b8152602060048201526014602482015273496e73756666696369656e742062616c616e636560601b6044820152606490fd5b919082018092116112b757565b634e487b7160e01b5f52601160045260245ffd5b6001600160a01b03165f8181527fb7db2dd08fcb62d0c9e08c51941cae53c267786a0b75803fb7960902fc8ef97d60205260409020545f805160206117b28339815191529060ff16611362575f805260205260405f20815f5260205260405f20600160ff1982541617905533905f7f2f8788117e7eff1d82e926ec794901d17c78024a50270940304540a733656f0d8180a4600190565b50505f90565b6001600160a01b03165f8181527fb16e88c42fd4e48df2dd6a2eabd6bc9aec654ec170056b470819f8892cc6431c60205260409020547fa49807205ce4d355092ef5a8a18f56e8913cf4a201fbe287825b095693c2177591905f805160206117b28339815191529060ff1661142157825f5260205260405f20815f5260205260405f20600160ff1982541617905533917f2f8788117e7eff1d82e926ec794901d17c78024a50270940304540a733656f0d5f80a4600190565b5050505f90565b90815f525f805160206117b28339815191528060205260405f209160018060a01b031691825f5260205260ff60405f205416155f1461142157825f5260205260405f20815f5260205260405f20600160ff1982541617905533917f2f8788117e7eff1d82e926ec794901d17c78024a50270940304540a733656f0d5f80a4600190565b335f9081527fa430574966134f2d1fc026184a8f59bf96aea256431f86230e26a76004245a9c60205260409020547ffec7cd74e5c65b641d49ecc2e89f646c7c0bcae85dc50f9616bf9c798cedda8b9060ff16156115065750565b6044906040519063e2517d3f60e01b82523360048301526024820152fd5b335f9081527fb16e88c42fd4e48df2dd6a2eabd6bc9aec654ec170056b470819f8892cc6431c60205260409020547fa49807205ce4d355092ef5a8a18f56e8913cf4a201fbe287825b095693c217759060ff16156115065750565b805f525f805160206117b283398151915260205260405f20335f5260205260ff60405f205416156115065750565b60ff5f805160206117d283398151915254166115c557565b60405163d93c066560e01b8152600490fd5b60405163a9059cbb60e01b60208201526001600160a01b039092166024830152604480830193909352918152608081019167ffffffffffffffff8311828410176111ab57611627926040526116e9565b565b90815f525f805160206117b28339815191528060205260405f209160018060a01b031691825f5260205260ff60405f2054165f1461142157825f5260205260405f20815f5260205260405f2060ff19815416905533917ff6391f5c32d9c69d2a47ea670b442974b53935d1edc7fd64eb21e047a839171b5f80a4600190565b60ff7ff0c57e16840df040f15088dc2f81fe391c3923bec73e23a9662efc9c229c6a005460401c16156116d757565b604051631afcd79f60e31b8152600490fd5b905f602091828151910182855af115611743575f513d61173a57506001600160a01b0381163b155b6117185750565b604051635274afe760e01b81526001600160a01b039091166004820152602490fd5b60011415611711565b6040513d5f823e3d90fd5b90611775575080511561176357602081519101fd5b60405163d6bda27560e01b8152600490fd5b815115806117a8575b611786575090565b604051639996b31560e01b81526001600160a01b039091166004820152602490fd5b50803b1561177e56fe02dd7bc7dec4dceedda775e58dd541e08a116c6c53815c0bd028192f7b626800cd5ed15c6e187e77e9aee88184c21f4f2182ab5827cb3b7e07fbedcd63f03300a264697066735822122008f17ee0d203a2cf335ec8bfa128bc4c67bc2b1643ddc0ccb59e91f71b4cff6964736f6c63430008180033","linkReferences":{}},"methodIdentifiers":{"ADMIN_ROLE()":"75b238fc","BASIS_POINTS()":"e1f1c4a7","DEFAULT_ADMIN_ROLE()":"a217fddf","INSURANCE_ROLE()":"b752a74b","UPGRADE_INTERFACE_VERSION()":"ad3cb1cc","VAULT_ROLE()":"98c4f1ac","emergencyWithdraw(address,uint256)":"95ccea67","getAvailablePayoutAmount()":"65ddc8b7","getBalance()":"12065fe0","getRoleAdmin(bytes32)":"248a9ca3","grantRole(bytes32,address)":"2f2ff15d","hasRole(bytes32,address)":"91d14854","initialize(address,address,uint256)":"1794bb3c","insuranceContract()":"d012a5a8","pause()":"8456cb59","paused()":"5c975abb","proxiableUUID()":"52d1902d","receivePremium(address,uint256)":"d5a867b7","renounceRole(bytes32,address)":"36568abe","reserveRatioBps()":"c383d344","revokeRole(bytes32,address)":"d547741f","setInsuranceContract(address)":"df314601","setReserveRatio(uint256)":"8b4f3b2c","supportsInterface(bytes4)":"01ffc9a7","totalPayouts()":"4089b170","totalPremiums()":"5bda1584","totalReserves()":"8f840ddd","transferTo(address,uint256)":"2ccb1b30","transferToPayoutVault(address,uint256)":"ca2e1446","unpause()":"3f4ba83a","upgradeToAndCall(address,bytes)":"4f1ef286","usdc()":"3e413bee"},"id":40}